:020000040800F2
:100000004C08002089010008F1010008F1010008F6
:10001000F1010008F1010008F101000800000000F2
:10002000000000000000000000000000F1010008D6
:10003000F101000800000000F1010008F1010008D2
:10004000F1010008F1010008F1010008F1010008C8
:10005000F1010008F1010008F1010008F1010008B8
:10006000F1010008F1010008F1010008F1010008A8
:10007000F1010008F1010008F1010008F101000898
:10008000F1010008F1010008F1010008F101000888
:10009000F1010008F1010008F1010008F101000878
:1000A000F1010008F1010008F1010008F101000868
:1000B000F1010008F1010008F1010008F101000858
:1000C000F1010008F1010008F1010008F101000848
:1000D000F1010008F1010008F1010008F101000838
:1000E000F1010008F1010008F1010008F101000828
:1000F000F1010008F1010008F1010008F101000818
:10010000F1010008F1010008F1010008F101000807
:10011000F1010008F1010008F1010008F1010008F7
:10012000F1010008F1010008F1010008F1010008E7
:10013000F1010008F1010008F1010008F1010008D7
:10014000F1010008F1010008F1010008F1010008C7
:10015000F1010008F1010008F1010008F1010008B7
:10016000F1010008F1010008F1010008F1010008A7
:10017000F1010008F1010008F1010008F101000897
:10018000F1010008F101000880B582B000AF40F62F
:10019000EC73C0F600037B6040F20003C2F2000380
:1001A0003B600BE07B681A683B681A603B6803F1B0
:1001B00004033B607B6803F104037B603A6840F210
:1001C0002C03C2F200039A42ECD3DFF8180EDFF8DA
:1001D000181E4FF000028842B8BF40F8042BFFF60B
:1001E000FAAF00F009F807F10807BD4680BD00BF6F
:1001F00080B400AFFEE700BF80B500AF00F0A4FA06
:1002000000F0EEF840F21803C2F200031A6847F259
:100210009133C5F69F53A3FB02134FEAD3239BB23E
:1002200003F1FF339AB240F24C03C2F200031A808A
:1002300040F22C03C2F2000340F2F3125A6040F283
:100240004C03C2F200031A8840F22C03C2F20003EE
:100250001A8040F22C03C2F200034FF000021A8110
:1002600040F22C03C2F200034FF000025A804FF418
:100270008060C4F2000040F22C01C2F2000100F0E4
:100280006DFB40F23803C2F200034FF060021A80A7
:1002900040F23803C2F200034FF001025A8040F2EC
:1002A0000003C2F200031B881A4640F23803C2F270
:1002B00000039A6040F23803C2F200034FF00002DC
:1002C0009A814FF48060C4F2000040F23801C2F21B
:1002D000000100F0FDFB4FF48060C4F200004FF01D
:1002E000080100F007FE40F23803C2F200034FF0AD
:1002F00001025A8040F20203C2F200031B881A4630
:1003000040F23803C2F200039A604FF48060C4F2F6
:10031000000040F23801C2F2000100F057FC4FF437
:100320008060C4F200004FF0080100F0FFFD40F2D1
:100330003803C2F200034FF001025A8040F2040376
:10034000C2F200031B881A4640F23803C2F20003CF
:100350009A604FF48060C4F2000040F23801C2F2AB
:10036000000100F0C7FC4FF48060C4F200004FF0C1
:10037000080100F0FBFD40F23803C2F200034FF029
:1003800001025A8040F20603C2F200031B881A469B
:1003900040F23803C2F200039A604FF48060C4F266
:1003A000000040F23801C2F2000100F033FD4FF4CA
:1003B0008060C4F200004FF0080100F0F3FD4FF43C
:1003C0008060C4F200004FF0010100F041FB4FF4E7
:1003D0008060C4F200004FF0010100F059FBFEE71D
:1003E00080B582B000AF4FF002004FF0010100F085
:1003F0008BF84FF006004FF0010100F05BF84FF072
:10040000C0033B604FF002033B714FF003037B716D
:100410004FF00003BB714FF00103FB713B464FF4FB
:100420000060C4F20200194600F098F84FF0030390
:100430003B604FF002033B714FF003037B714FF0C1
:100440000003BB714FF00103FB713B464FF480602A
:10045000C4F20200194600F081F84FF40060C4F2C3
:1004600002004FF006014FF0020200F019F94FF4BC
:100470000060C4F202004FF007014FF0020200F0EA
:100480000FF94FF48060C4F202004FF000014FF00A
:10049000020200F005F94FF48060C4F202004FF050
:1004A00001014FF0020200F0FBF807F10807BD461A
:1004B00080BD00BF80B483B000AF78600B46FB7096
:1004C000FB78002B0CD04FF46053C4F202034FF4BE
:1004D0006052C4F20202116B7A680A431A630DE09B
:1004E0004FF46053C4F202034FF46052C4F20202AC
:1004F000116B7A686FEA02020A401A6307F10C076F
:10050000BD4680BC704700BF80B483B000AF786048
:100510000B46FB70FB78002B0CD04FF46053C4F2F9
:1005200002034FF46052C4F20202116C7A680A436B
:100530001A640DE04FF46053C4F202034FF46052AA
:10054000C4F20202116C7A686FEA02020A401A646D
:1005500007F10C07BD4680BC704700BF80B487B070
:1005600000AF786039604FF000037B614FF000030B
:100570003B614FF00003FB604FF000037B6186E0BE
:100580007B694FF0010202FA03F33B613B681A6892
:100590003B691340FB60FA683B699A4273D17B6800
:1005A0001A687B694FEA43034FF0030101FA03F332
:1005B0006FEA03031A407B681A607B681A683B681D
:1005C0001B7919467B694FEA430301FA03F31A4387
:1005D0007B681A603B681B79012B03D03B681B7951
:1005E000022B34D17B689A687B694FEA43034FF052
:1005F000030101FA03F36FEA03031A407B689A6070
:100600007B689A683B685B7919467B694FEA4303CC
:1006100001FA03F31A437B689A607B685A687B6926
:100620009BB24FF0010101FA03F36FEA03031A4092
:100630007B685A607B685A683B689B7919467B697E
:100640009BB201FA03F39BB21A437B685A607B6842
:10065000DA687B699BB24FEA43034FF0030101FA6A
:1006600003F36FEA03031A407B68DA607B68DA6899
:100670003B68DB7919467B694FEA430301FA03F3D0
:100680001A437B68DA607B6903F101037B617B6954
:100690000F2B7FF675AF07F11C07BD4680BC704776
:1006A00080B485B000AF786013460A467A807B70CC
:1006B0004FF00003FB604FF00003BB607A787B884B
:1006C00003F007034FEA830302FA03F3FB607B881E
:1006D0004FEAD3039BB21A467B884FEAD3039BB2FF
:1006E00019467B6801F1080153F821107B8803F05B
:1006F00007034FEA83034FF00F0000FA03F36FEA9A
:10070000030319407B6802F1080243F822107B883A
:100710004FEAD3039BB21A467B6802F1080253F8F2
:100720002220FB681343BB607B884FEAD3039BB254
:100730001A467B6802F10802B96843F8221007F1F3
:100740001407BD4680BC704780B500AF4FF46053BE
:10075000C4F202034FF46052C4F20202126842F083
:1007600001021A604FF46053C4F202034FF000021A
:100770009A604FF46053C4F202034FF46052C4F223
:100780000202126822F0847222F480321A604FF45E
:100790006053C4F2020343F21002C2F200425A60F4
:1007A0004FF46053C4F202034FF46052C4F20202E9
:1007B000126822F480221A604FF46053C4F20203DC
:1007C0004FF00002DA6000F009F84FF46D43CEF20A
:1007D00000034FF000629A6080BD00BF80B483B018
:1007E00000AF4FF000037B604FF000033B604FF41D
:1007F0006053C4F202034FF46052C4F20202126862
:1008000042F480321A604FF46053C4F202031B6852
:1008100003F400333B607B6803F101037B603B68BA
:10082000002B03D17B68B3F5A06FECD14FF460537C
:10083000C4F202031B6803F40033002B03D04FF013
:1008400001033B6002E04FF000033B603B68012B7B
:100850007FD14FF46053C4F202034FF46052C4F2EC
:100860000202126C42F080521A644FF4E043C4F268
:1008700000034FF4E042C4F20002126842F48042E6
:100880001A604FF46053C4F202034FF46052C4F292
:10089000020292689A604FF46053C4F202034FF46C
:1008A0006052C4F20202926842F400429A604FF42D
:1008B0006053C4F202034FF46052C4F20202926821
:1008C00042F4A0529A604FF46053C4F2020345F21E
:1008D0000842C0F240725A604FF46053C4F20203FF
:1008E0004FF46052C4F20202126842F080721A6041
:1008F0004FF46053C4F202031B6803F00073002B33
:10090000F6D04FF47053C4F2020340F205621A604D
:100910004FF46053C4F202034FF46052C4F2020277
:10092000926822F003029A604FF46053C4F202030B
:100930004FF46052C4F20202926842F002029A60DE
:100940004FF46053C4F202039B6803F00C03082BBE
:10095000F6D107F10C07BD4680BC704780B485B066
:1009600000AF786039604FF00003FB817B681B8823
:10097000FB817A684FF00003C4F201039A421FD052
:100980007A684FF48063C4F201039A4218D07B68FE
:10099000B3F1804F14D07A684FF48063C4F200033F
:1009A0009A420DD07A684FF40063C4F200039A4271
:1009B00006D07A684FF44063C4F200039A4208D12B
:1009C000FB8923F07003FB813B685A88FB89134342
:1009D000FB817A684FF48053C4F200039A420FD02F
:1009E0007A684FF4A053C4F200039A4208D0FB89FE
:1009F00023F44073FB813B681A89FB891343FB8115
:100A00007B68FA891A803B685A687B68DA623B68BF
:100A10001A887B681A857A684FF00003C4F20103D4
:100A20009A4206D07A684FF48063C4F201039A4276
:100A300004D13B689B7A1A467B681A867B684FF024
:100A400001029A8207F11407BD4680BC704700BFBF
:100A500080B483B000AF78600B46FB70FB78002B4E
:100A600008D07B681B889BB243F080039AB27B68F6
:100A70001A8007E07B681B889BB223F080039AB240
:100A80007B681A8007F10C07BD4680BC704700BF29
:100A900080B483B000AF78600B46FB70FB78002B0E
:100AA00008D07B681B889BB243F001039AB27B6835
:100AB0001A8007E07B681B889BB223F001039AB27F
:100AC0007B681A8007F10C07BD4680BC704700BFE9
:100AD00080B485B000AF786039604FF000037B814F
:100AE0004FF00003FB814FF00003BB817B681B8C40
:100AF0009BB223F001039AB27B681A847B681B8C3B
:100B0000FB817B689B88BB817B681B8B7B817B899E
:100B100023F070037B817B8923F003037B813B6897
:100B20001A887B8913437B81FB8923F00203FB81B5
:100B30003B689A89FB891343FB813B685A88FB8990
:100B40001343FB817A684FF00003C4F201039A4219
:100B500006D07A684FF48063C4F201039A4223D12D
:100B6000FB8923F00803FB813B68DA89FB89134387
:100B7000FB81FB8923F00403FB813B689A88FB8996
:100B80001343FB81BB8923F48073BB81BB8923F4AE
:100B90000073BB813B681A8ABB891343BB813B68E6
:100BA0005A8ABB891343BB817B68BA899A807B6868
:100BB0007A891A833B689A687B685A637B68FA89EA
:100BC0001A8407F11407BD4680BC704780B485B015
:100BD00000AF786039604FF000037B814FF0000375
:100BE000FB814FF00003BB817B681B8C9BB223F021
:100BF00010039AB27B681A847B681B8CFB817B682C
:100C00009B88BB817B681B8B7B817B8923F4E043C2
:100C10007B817B8923F440737B813B681B884FEA8F
:100C200003239AB27B8913437B81FB8923F0200342
:100C3000FB813B689B894FEA03139AB2FB891343FC
:100C4000FB813B685B884FEA03139AB2FB8913432D
:100C5000FB817A684FF00003C4F201039A4206D088
:100C60007A684FF48063C4F201039A422FD1FB8962
:100C700023F08003FB813B68DB894FEA03139AB2C0
:100C8000FB891343FB81FB8923F04003FB813B6815
:100C90009B884FEA03139AB2FB891343FB81BB89FC
:100CA00023F48063BB81BB8923F40063BB813B6871
:100CB0001B8A4FEA83039AB2BB891343BB813B680B
:100CC0005B8A4FEA83039AB2BB891343BB817B687B
:100CD000BA899A807B687A891A833B689A687B68AC
:100CE0009A637B68FA891A8407F11407BD4680BCB1
:100CF000704700BF80B485B000AF786039604FF0B6
:100D000000037B814FF00003FB814FF00003BB81A8
:100D10007B681B8C9BB223F480739AB27B681A8425
:100D20007B681B8CFB817B689B88BB817B689B8B72
:100D30007B817B8923F070037B817B8923F0030314
:100D40007B813B681A887B8913437B81FB8923F471
:100D50000073FB813B689B894FEA03239AB2FB89AE
:100D60001343FB813B685B884FEA03239AB2FB89FC
:100D70001343FB817A684FF00003C4F201039A42E7
:100D800006D07A684FF48063C4F201039A422FD1EF
:100D9000FB8923F40063FB813B68DB894FEA032373
:100DA0009AB2FB891343FB81FB8923F48063FB81A7
:100DB0003B689B884FEA03239AB2FB891343FB816C
:100DC000BB8923F48053BB81BB8923F40053BB81CF
:100DD0003B681B8A4FEA03139AB2BB891343BB815A
:100DE0003B685B8A4FEA03139AB2BB891343BB810A
:100DF0007B68BA899A807B687A899A833B689A680B
:100E00007B68DA637B68FA891A8407F11407BD46A8
:100E100080BC704780B485B000AF786039604FF017
:100E20000003BB814FF000037B814FF00003FB8187
:100E30007B681B8C9BB223F480539AB27B681A8424
:100E40007B681B8C7B817B689B88FB817B689B8B91
:100E5000BB81BB8923F4E043BB81BB8923F440738E
:100E6000BB813B681B884FEA03239AB2BB891343BB
:100E7000BB817B8923F400537B813B689B894FEACC
:100E800003339AB27B8913437B813B685B884FEACB
:100E900003339AB27B8913437B817A684FF0000356
:100EA000C4F201039A4206D07A684FF48063C4F218
:100EB00001039A420BD1FB8923F48043FB813B68F9
:100EC0001B8A4FEA83139AB2FB891343FB817B6829
:100ED000FA899A807B68BA899A833B689A687B68AA
:100EE0001A647B687A891A8407F11407BD4680BCAE
:100EF000704700BF80B485B000AF78600B467B8040
:100F00004FF00003FB817B681B8BFB81FB8923F087
:100F10000803FB81FA897B881343FB817B68FA898C
:100F20001A8307F11407BD4680BC704780B485B0B2
:100F300000AF78600B467B804FF00003FB817B683D
:100F40001B8BFB81FB8923F40063FB817B884FEAC9
:100F500003239AB2FB891343FB817B68FA891A83C6
:100F600007F11407BD4680BC704700BF80B485B050
:100F700000AF78600B467B804FF00003FB817B68FD
:100F80009B8BFB81FB8923F00803FB81FA897B881B
:100F90001343FB817B68FA899A8307F11407BD46E6
:100FA00080BC704780B485B000AF78600B467B8012
:100FB0004FF00003FB817B689B8BFB81FB8923F453
:100FC0000063FB817B884FEA03239AB2FB891343BA
:100FD000FB817B68FA899A8307F11407BD4680BCC0
:0C0FE000704700002C0000205000002092
:100FEC00F900BB007D003E0000000000010203047C
:100FFC000102030406070809007A030A0000000036
:0C100C00000000000102030406070809B0
:04000005080001F9F5
:00000001FF
