:020000040800F2
:100000000408002089010008F1010008F10100083E
:10001000F1010008F1010008F101000800000000F2
:10002000000000000000000000000000F1010008D6
:10003000F101000800000000F1010008F1010008D2
:10004000F1010008F1010008F1010008F1010008C8
:10005000F1010008F1010008F1010008F1010008B8
:10006000F1010008F1010008F1010008F1010008A8
:10007000F1010008F1010008F1010008F101000898
:10008000F1010008F1010008F1010008F101000888
:10009000F1010008F1010008F1010008F101000878
:1000A000F1010008F1010008F1010008F101000868
:1000B000F1010008F1010008F1010008F101000858
:1000C000F1010008F1010008F1010008F101000848
:1000D000F1010008F1010008F1010008F101000838
:1000E000F1010008F1010008F1010008F101000828
:1000F000F1010008F1010008F1010008F101000818
:10010000F1010008F1010008F1010008F101000807
:10011000F1010008F1010008F1010008F1010008F7
:10012000F1010008F1010008F1010008F1010008E7
:10013000F1010008F1010008F1010008F1010008D7
:10014000F1010008F1010008F1010008F1010008C7
:10015000F1010008F1010008F1010008F1010008B7
:10016000F1010008F1010008F1010008F1010008A7
:10017000F1010008F1010008F1010008F101000897
:10018000F1010008F101000880B582B000AF41F232
:10019000F823C0F600037B6040F20003C2F20003C4
:1001A0003B600BE07B681A683B681A603B6803F1B0
:1001B00004033B607B6803F104037B603A6840F210
:1001C0000003C2F200039A42ECD3DFF8A00CDFF880
:1001D000A01C4FF000028842B8BF40F8042BFFF685
:1001E000FAAF00F009F807F10807BD4680BD00BF6F
:1001F00080B400AFFEE700BF80B500AF00F078FC30
:1002000000F080FD00F000F948F2A060C0F20100AB
:1002100000F0E6F800F0FEFD024640F20003C2F2F4
:1002200000031A604FF44060C4F202004FF47041C2
:1002300000F050FC40F20003C2F200031B681846B5
:1002400000F06CFF02460B46104619465CA3D3E94A
:10025000002301F029F80346002B23D040F20003CD
:10026000C2F200031B68184600F058FF02460B4616
:100270001046194654A3D3E9002301F033F803468E
:10028000002B0FD04FF44060C4F202004FF48051B5
:1002900000F012FC4FF44060C4F202004FF46041E1
:1002A00000F018FC40F20003C2F200031B6818467D
:1002B00000F034FF02460B461046194640A3D3E92E
:1002C000002301F00FF80346002B23D040F2000377
:1002D000C2F200031B68184600F020FF02460B46DE
:1002E000104619463AA3D3E9002300F0DDFF034688
:1002F000002B0FD04FF44060C4F202004FF4405185
:1003000000F0DAFB4FF44060C4F202004FF44041C9
:1003100000F0E0FB40F20003C2F200031B68184645
:1003200000F0FCFE02460B461046194628A3D3E90E
:10033000002300F0D7FF0346002B23D040F2000338
:10034000C2F200031B68184600F0E8FE02460B46A6
:100350001046194620A3D3E9002300F0A5FF034669
:10036000002B0FD04FF44060C4F202004FF4E04184
:1003700000F0A2FB4FF44060C4F202004FF40041D1
:1003800000F0A8FB40F20003C2F200031B6818460D
:1003900000F0C4FE02460B46104619460EA3D3E9F0
:1003A000002300F09FFF0346002B3FF42DAF4FF4D6
:1003B0004060C4F202004FF4704100F07DFB23E77F
:1003C0000000000000FE8F4000000000009869401F
:1003D0000000000000FE9F400000000080FEA740DB
:1003E00080B483B000AF78607B68002B0CBF002224
:1003F0000122D2B203F1FF337B60002AF4D107F16E
:100400000C07BD4680BC704780B582B000AF4FF08E
:1004100008004FF0010100F01BF84FF470433B60FF
:100420004FF001033B714FF00003BB714FF003032A
:100430007B714FF00003FB713B464FF44060C4F208
:100440000200194600F078FA07F10807BD4680BDA2
:1004500080B483B000AF78600B46FB70FB78002B54
:100460000CD04FF46053C4F202034FF46052C4F254
:100470000202116B7A680A431A630DE04FF460536D
:10048000C4F202034FF46052C4F20202116B7A68A4
:100490006FEA02020A401A6307F10C07BD4680BCEE
:1004A000704700BF80B483B000AF78600B46FB702C
:1004B000FB78002B0CD04FF46053C4F202034FF4CE
:1004C0006052C4F20202516C7A680A435A640DE029
:1004D0004FF46053C4F202034FF46052C4F20202BC
:1004E000516C7A686FEA02020A405A6407F10C07FD
:1004F000BD4680BC704700BF80B485B000AF786057
:1005000039604FF00003FB604FF00003FB727B6823
:100510005B68FB60FB6823F0407323F48073FB602F
:100520003B681B794FEA03223B681B681343FA6858
:100530001343FB607B68FA685A607B689B68FB60CA
:10054000FA684FF2FD73CCF2FF031340FB603B6887
:100550001A693B68DB681A433B689B681A433B682F
:100560005B794FEA43031343FA681343FB607B68EC
:10057000FA689A607B68DB6AFB60FB6823F47003AF
:10058000FB603B681B7D03F1FF33DAB2FB7A134358
:10059000FB72FB7A4FEA0353FA681343FB607B68F4
:1005A000FA68DA6207F11407BD4680BC704700BFE5
:1005B00080B483B000AF78607B684FF000021A60AF
:1005C0007B684FF000021A717B684FF000025A718D
:1005D0007B684FF000029A607B684FF00002DA609F
:1005E0007B684FF000021A617B684FF001021A75B8
:1005F00007F10C07BD4680BC704700BF80B485B0D2
:1006000000AF78604FF00003FB604FF40C53C4F26E
:1006100001035B68FB60FA6843F2E003CFF6FC730A
:100620001340FB607B681A687B685B681A437B68D1
:100630009B681A437B68DB681343FA681343FB60CB
:100640004FF40C53C4F20103FA685A6007F114071F
:10065000BD4680BC704700BF80B483B000AF7860F7
:100660007B684FF000021A607B684FF000025A600E
:100670007B684FF000029A607B684FF00002DA60FE
:1006800007F10C07BD4680BC704700BF80B483B043
:1006900000AF78600B46FB70FB78002B06D07B68C0
:1006A0009B6843F001027B689A6005E07B689B6869
:1006B00023F001027B689A6007F10C07BD4680BCFD
:1006C000704700BF80B487B000AF7860F970BA702F
:1006D0007B704FF000037B614FF000033B614FF0F4
:1006E0000003FB60FB78092B27D97B68DB687B6103
:1006F000FA7813464FEA43039B18A3F11E034FF009
:10070000070202FA03F33B613B696FEA03037A696C
:1007100013407B617978FA7813464FEA43039B18BC
:10072000A3F11E0301FA03F33B617A693B691343AA
:100730007B617B687A69DA6022E07B681B697B6198
:10074000FA7813464FEA43039B184FF0070202FA68
:1007500003F33B613B696FEA03037A6913407B61F2
:100760007978FA7813464FEA43039B1801FA03F3AA
:100770003B617A693B6913437B617B687A691A61E3
:100780007B689B6B7B617B6903F440134FEA1353D7
:10079000FB60FB68DBB26FEA0303DAB2BB78D31805
:1007A000DBB203F10303DBB21A4613464FEA8303BD
:1007B0009B184FF01F0202FA03F33B613B696FEA9B
:1007C00003037A6913407B61F978FB68DBB26FEA57
:1007D0000303DAB2BB78D318DBB203F10303DBB255
:1007E0001A4613464FEA83039B1801FA03F33B6151
:1007F0007A693B6913437B617B687A699A6307F185
:100800001C07BD4680BC704780B485B000AF7860DF
:100810000B46FB704FF00003FB604FF00003BB6022
:100820007B689B6BFB60FB6823F44013FB60FB78E9
:1008300003F1FF33BB60BB684FEA0353FA6813430D
:10084000FB607B68FA689A6307F11407BD4680BCB9
:10085000704700BF80B485B000AF786013460A4689
:10086000FA703B804FF00003FB607B68FB60FA7816
:10087000FB68D318FB60FB683A881A6007F114071D
:10088000BD4680BC704700BF80B483B000AF7860C5
:100890007B689B6843F480027B689A6007F10C07D1
:1008A000BD4680BC704700BF80B485B000AF7860A3
:1008B0000B46FB704FF00003FB607B68FB60FA782F
:1008C000FB68D31803F12803FB60FB681B689BB22D
:1008D000184607F11407BD4680BC704780B485B048
:1008E00000AF78600B46FB704FF00003FB737B6832
:1008F0001A68FB781340002B03D04FF00103FB7301
:1009000002E04FF00003FB73FB7B184607F114076E
:10091000BD4680BC704700BF80B483B000AF786034
:100920000B46FB70FB786FEA03027B681A6007F1E5
:100930000C07BD4680BC704780B487B000AF7860BC
:1009400039604FF000037B614FF000033B614FF0D3
:100950000003FB604FF000037B6186E07B694FF092
:10096000010202FA03F33B613B681A683B691340DA
:10097000FB60FA683B699A4273D17B681A687B69AD
:100980004FEA43034FF0030101FA03F36FEA030355
:100990001A407B681A607B681A683B681B791946A5
:1009A0007B694FEA430301FA03F31A437B681A6039
:1009B0003B681B79012B03D03B681B79022B34D198
:1009C0007B689A687B694FEA43034FF0030101FAA1
:1009D00003F36FEA03031A407B689A607B689A68A6
:1009E0003B685B7919467B694FEA430301FA03F3DD
:1009F0001A437B689A607B685A687B699BB24FF0A8
:100A0000010101FA03F36FEA03031A407B685A609D
:100A10007B685A683B689B7919467B699BB201FAEF
:100A200003F39BB21A437B685A607B68DA687B6980
:100A30009BB24FEA43034FF0030101FA03F36FEA5D
:100A400003031A407B68DA607B68DA683B68DB790D
:100A500019467B694FEA430301FA03F31A437B68A3
:100A6000DA607B6903F101037B617B690F2B7FF601
:100A700075AF07F11C07BD4680BC704780B483B0DA
:100A800000AF78607B684FF6FF721A607B684FF0AA
:100A900000021A717B684FF000025A717B684FF0B8
:100AA00000029A717B684FF00002DA7107F10C07BF
:100AB000BD4680BC704700BF80B483B000AF786093
:100AC0000B467B807B687A881A8307F10C07BD464A
:100AD00080BC704780B483B000AF78600B467B80E9
:100AE0007B687A885A8307F10C07BD4680BC704743
:100AF00080B500AF4FF46053C4F202034FF460526C
:100B0000C4F20202126842F001021A604FF460530C
:100B1000C4F202034FF000029A604FF46053C4F233
:100B200002034FF46052C4F20202126822F084728F
:100B300022F480321A604FF46053C4F2020343F28D
:100B40001002C2F200425A604FF46053C4F2020332
:100B50004FF46052C4F20202126822F480221A603A
:100B60004FF46053C4F202034FF00002DA6000F069
:100B700009F84FF46D43CEF200034FF000629A6023
:100B800080BD00BF80B483B000AF4FF000037B6036
:100B90004FF000033B604FF46053C4F202034FF484
:100BA0006052C4F20202126842F480321A604FF4BA
:100BB0006053C4F202031B6803F400333B607B689C
:100BC00003F101037B603B68002B03D17B68B3F525
:100BD000A06FECD14FF46053C4F202031B6803F41E
:100BE0000033002B03D04FF001033B6002E04FF0D5
:100BF00000033B603B68012B7FD14FF46053C4F28C
:100C000002034FF46052C4F20202126C42F08052AE
:100C10001A644FF4E043C4F200034FF4E042C4F21C
:100C20000002126842F480421A604FF46053C4F22A
:100C300002034FF46052C4F2020292689A604FF4C9
:100C40006053C4F202034FF46052C4F2020292688D
:100C500042F400429A604FF46053C4F202034FF42E
:100C60006052C4F20202926842F4A0529A604FF4B9
:100C70006053C4F2020345F21942C0F240725A6056
:100C80004FF46053C4F202034FF46052C4F2020204
:100C9000126842F080721A604FF46053C4F202038B
:100CA0001B6803F00073002BF6D04FF47053C4F2AE
:100CB000020340F205621A604FF46053C4F202036B
:100CC0004FF46052C4F20202926822F003029A606A
:100CD0004FF46053C4F202034FF46052C4F20202B4
:100CE000926842F002029A604FF46053C4F2020329
:100CF0009B6803F00C03082BF6D107F10C07BD46E7
:100D000080BC704780B58CB000AF4FF004004FF04E
:100D10000101FFF79DFB07F128031846FFF7AEFE20
:100D20004FF00203BB624FF0030387F82C304FF003
:100D3000000387F82F3007F128034FF40060C4F256
:100D400002001946FFF7F8FD4FF480704FF00101E3
:100D5000FFF7A8FB3B461846FFF77EFC4FF0000369
:100D60003B604FF480337B604FF00003BB604FF07B
:100D70000003FB603B461846FFF740FC07F11003F9
:100D80001846FFF715FC4FF000033B614FF00003DE
:100D90003B754FF000037B754FF00003BB614FF0D4
:100DA00000033B624FF0010387F8243007F1100382
:100DB0004FF40050C4F201001946FFF79DFB4FF4B9
:100DC0000050C4F201004FF00101FFF71DFD4FF488
:100DD0000050C4F201004FF014014FF00002FFF781
:100DE00039FD4FF40050C4F201004FF00B014FF0F9
:100DF00001024FF00703FFF765FC4FF40050C4F207
:100E000001004FF00101FFF741FC07F13007BD463B
:100E100080BD00BF80B582B000AF4FF40050C4F277
:100E200001004FF00401FFF777FD4FF40050C4F2CA
:100E30000100FFF729FD4FF40050C4F201004FF00C
:100E40000401FFF74BFD0346002BF4D04FF4005094
:100E5000C4F201004FF01401FFF726FD03467B604A
:100E60007B68184607F10807BD4680BD00000020DA
:100E700004000020AFF3008081F0004102E000BFD9
:100E800083F0004330B54FEA41044FEA430594EA4A
:100E9000050F08BF90EA020F1FBF54EA000C55EA85
:100EA000020C7FEA645C7FEA655C00F0E2804FEA56
:100EB0005454D4EB5555B8BF6D420CDD2C4480EA38
:100EC000020281EA030382EA000083EA010180EA68
:100ED000020281EA0303362D88BF30BD11F0004FB6
:100EE0004FEA01314FF4801C4CEA113102D04042EC
:100EF00061EB410113F0004F4FEA03334CEA133327
:100F000002D0524263EB430394EA050F00F0A7803E
:100F1000A4F10104D5F1200E0DDB02FA0EFC22FA39
:100F200005F2801841F1000103FA0EF2801843FA2D
:100F300005F359410EE0A5F120050EF1200E012A1E
:100F400003FA0EFC28BF4CF0020C43FA05F3C0185C
:100F500051EBE37101F0004507D54FF0000EDCF1D5
:100F6000000C7EEB00006EEB0101B1F5801F1BD37E
:100F7000B1F5001F0CD349085FEA30004FEA3C0C82
:100F800004F101044FEA445212F5800F80F09A8078
:100F9000BCF1004F08BF5FEA500C50F1000041EB7C
:100FA000045141EA050130BD5FEA4C0C404141EB80
:100FB000010111F4801FA4F10104E9D191F0000FA7
:100FC00004BF01460020B1FA81F308BF2033A3F12A
:100FD0000B03B3F120020CDA0C3208DD02F1140C21
:100FE000C2F10C0201FA0CF021FA02F10CE002F15C
:100FF0001402D8BFC2F1200C01FA02F120FA0CFC55
:10100000DCBF41EA0C019040E41AA2BF01EB04519D
:10101000294330BD6FEA04041F3C1CDA0C340EDC9B
:1010200004F11404C4F1200220FA04F001FA02F3DE
:1010300040EA030021FA04F345EA030130BDC4F19C
:101040000C04C4F1200220FA02F001FA04F340EA91
:101050000300294630BD21FA04F0294630BD94F042
:10106000000F83F4801306BF81F480110134013D29
:101070004EE77FEA645C18BF7FEA655C29D094EA9A
:10108000050F08BF90EA020F05D054EA000C04BF18
:101090001946104630BD91EA030F1EBF0021002003
:1010A00030BD5FEA545C05D14000494128BF41F0A2
:1010B000004130BD14F580043CBF01F5801130BD06
:1010C00001F0004545F0FE4141F470014FF0000091
:1010D00030BD7FEA645C1ABF194610467FEA655C42
:1010E0001CBF0B46024650EA013406BF52EA0335E4
:1010F00091EA030F41F4002130BD00BF90F0000FD2
:1011000004BF0021704730B54FF4806404F132040D
:101110004FF000054FF0000150E700BF90F0000FC6
:1011200004BF0021704730B54FF4806404F13204ED
:1011300010F0004548BF40424FF000013EE700BFBD
:1011400042004FEAE2014FEA31014FEA02701FBF4D
:1011500012F07F4393F07F4F81F06051704792F01F
:10116000000F14BF93F07F4F704730B54FF4607499
:1011700001F0004521F0004120E700BF50EA0102E4
:1011800008BF704730B54FF000050AE050EA010291
:1011900008BF704730B511F0004502D5404261EB01
:1011A00041014FF4806404F132045FEA915C3FF442
:1011B000DCAE4FF003025FEADC0C18BF03325FEADB
:1011C000DC0C18BF033202EBDC02C2F1200300FA90
:1011D00003FC20FA02F001FA03FE40EA0E0021FAB5
:1011E00002F11444C1E600BF4FF0FF3C06E000BF2F
:1011F0004FF0010C02E000BF4FF0010C4DF804CDA0
:101200004FEA410C7FEA6C5C4FEA430C18BF7FEA5F
:101210006C5C1BD001B050EA410C0CBF52EA430C8D
:1012200091EA030F02BF90EA020F0020704710F10D
:10123000000F91EA030F58BF994208BF90422CBF9C
:10124000D8176FEAE37040F0010070474FEA410C95
:101250007FEA6C5C02D150EA013C07D14FEA430CB3
:101260007FEA6C5CD6D152EA033CD3D05DF8040B24
:10127000704700BF8446104662468C461946634656
:1012800000E000BF01B5FFF7B7FF002848BF10F12D
:10129000000F01BD4DF808EDFFF7F4FF0CBF012072
:1012A00000205DF808FB00BF4DF808EDFFF7EAFFEE
:1012B00034BF012000205DF808FB00BF4DF808EDA9
:1012C000FFF7E0FF94BF012000205DF808FB00BF9E
:1012D0004DF808EDFFF7CEFF94BF012000205DF828
:1012E00008FB00BF4DF808EDFFF7C4FF34BF012035
:0812F00000205DF808FB00BFBF
:04000005080001F9F5
:00000001FF
