:020000040800F2
:100000000008002089010008F5010008F50100083A
:10001000F5010008F5010008F501000800000000E6
:10002000000000000000000000000000F5010008D2
:10003000F501000800000000F5010008F5010008C6
:10004000F5010008F5010008F5010008F5010008B8
:10005000F5010008F5010008F5010008F5010008A8
:10006000F5010008F5010008F5010008F501000898
:10007000F5010008F5010008F5010008F501000888
:10008000F5010008F5010008F5010008F501000878
:10009000F5010008F5010008F5010008F501000868
:1000A000F5010008F5010008F5010008F501000858
:1000B000F5010008F5010008F5010008F501000848
:1000C000F5010008F5010008F5010008F501000838
:1000D000F5010008F5010008F5010008F501000828
:1000E000F5010008F5010008F5010008F501000818
:1000F000F5010008F5010008F5010008F501000808
:10010000F5010008F5010008F5010008F5010008F7
:10011000F5010008F5010008F5010008F5010008E7
:10012000F5010008F5010008F5010008F5010008D7
:10013000F5010008F5010008F5010008F5010008C7
:10014000F5010008F5010008F5010008F5010008B7
:10015000F5010008F5010008F5010008F5010008A7
:10016000F5010008F5010008F5010008F501000897
:10017000F5010008F5010008F5010008F501000887
:10018000F5010008F501000880B582B000AF40F22B
:100190007053C0F600037B6040F20003C2F200031C
:1001A0003B600BE07B681A683B681A603B6803F1B0
:1001B00004033B607B6803F104037B603A6840F210
:1001C0000003C2F200039A42ECD3084808494FF0FA
:1001D00000028842B8BF40F8042BFFF6FAAF00F0E7
:1001E00053F807F10807BD4680BD0000000000205D
:1001F0000000002080B400AFFEE700BF80B582B0F1
:1002000000AF4FF008004FF0010100F0ABF84FF4E1
:1002100070433B604FF001033B714FF00003BB7133
:100220004FF003037B714FF00003FB713B464FF42B
:100230004060C4F20200194600F0BEF807F108075A
:10024000BD4680BD80B582B000AF4FF001004FF0D9
:10025000010100F087F84FF001033B604FF000030D
:100260003B714FF003037B714FF00003FB713B4682
:100270004FF00000C4F20200194600F09DF807F1AB
:100280000807BD4680BD00BF80B500AFFFF7B6FFD1
:10029000FFF7D8FF4FF44060C4F202004FF48051E2
:1002A00000F04AF94FF6FF70C0F20F0000F044F87A
:1002B0004FF44060C4F202004FF4005100F03CF9EA
:1002C0004FF6FF70C0F20F0000F036F84FF000005C
:1002D000C4F202004FF0010100F010F90346002BB8
:1002E0001BD14FF44060C4F202004FF4804100F093
:1002F00023F94FF6FF70C0F20F0000F01DF84FF425
:100300004060C4F202004FF4004100F015F94FF6CE
:10031000FF70C0F20F0000F00FF84FF44060C4F21D
:1003200002004FF4704100F015F94FF6FF70C0F273
:100330000F0000F001F8ADE780B483B000AF786043
:1003400000BF7B68002B0CBF00230123DBB27A685F
:1003500002F1FF327A60002BF3D107F10C07BD46A2
:1003600080BC704780B483B000AF78600B46FB70F0
:10037000FB78002B0CD04FF46053C4F202034FF40F
:100380006052C4F20202116B7A680A431A630DE0EC
:100390004FF46053C4F202034FF46052C4F20202FD
:1003A000116B7A686FEA02020A401A6307F10C07C0
:1003B000BD4680BC704700BF80B487B000AF786096
:1003C00039604FF000037B614FF000033B614FF059
:1003D0000003FB604FF000037B6186E07B694FF018
:1003E000010202FA03F33B613B681A683B69134060
:1003F000FB60FA683B699A4273D17B681A687B6933
:100400004FEA43034FF0030101FA03F36FEA0303DA
:100410001A407B681A607B681A683B681B7919462A
:100420007B694FEA430301FA03F31A437B681A60BE
:100430003B681B79012B03D03B681B79022B34D11D
:100440007B689A687B694FEA43034FF0030101FA26
:1004500003F36FEA03031A407B689A607B689A682B
:100460003B685B7919467B694FEA430301FA03F362
:100470001A437B689A607B685A687B699BB24FF02D
:10048000010101FA03F36FEA03031A407B685A6023
:100490007B685A683B689B7919467B699BB201FA75
:1004A00003F39BB21A437B685A607B68DA687B6906
:1004B0009BB24FEA43034FF0030101FA03F36FEAE3
:1004C00003031A407B68DA607B68DA683B68DB7993
:1004D00019467B694FEA430301FA03F31A437B6829
:1004E000DA607B6903F101037B617B690F2B7FF687
:1004F00075AF07F11C07BD4680BC704780B485B05E
:1005000000AF78600B467B804FF00003FB737B6885
:100510001A697B881340002B03D04FF00103FB7353
:1005200002E04FF00003FB73FB7B184607F1140752
:10053000BD4680BC704700BF80B483B000AF786018
:100540000B467B807B687A881A8307F10C07BD46CF
:1005500080BC704780B483B000AF78600B467B806E
:100560007B687A885A8307F10C07BD4680BC7047C8
:0400000508000000EF
:00000001FF
