:020000040800F2
:100000007808002089010008F5010008F5010008C2
:10001000F5010008F5010008F501000800000000E6
:10002000000000000000000000000000F5010008D2
:10003000F501000800000000F5010008F5010008C6
:10004000F5010008F5010008F5010008F5010008B8
:10005000F5010008F5010008F5010008F5010008A8
:10006000F5010008F5010008F5010008F501000898
:10007000F5010008F5010008F5010008F501000888
:10008000F5010008F5010008F5010008F501000878
:10009000F5010008F5010008F5010008F501000868
:1000A000F5010008F5010008F5010008F501000858
:1000B000F5010008F5010008F5010008F501000848
:1000C000F5010008F5010008F5010008F501000838
:1000D000F5010008F5010008F5010008F501000828
:1000E000F5010008F5010008F5010008F501000818
:1000F000F5010008F5010008F5010008F501000808
:10010000F5010008F5010008F5010008F5010008F7
:10011000F5010008F5010008F5010008F5010008E7
:10012000F5010008F5010008F5010008F5010008D7
:10013000F5010008F5010008F5010008F5010008C7
:10014000F5010008F5010008F5010008F5010008B7
:10015000F5010008F5010008F5010008F5010008A7
:10016000F5010008F5010008F5010008F501000897
:10017000F5010008F5010008F5010008F501000887
:10018000F5010008F501000880B582B000AF40F627
:100190003853C0F600037B6040F20003C2F2000354
:1001A0003B600BE07B681A683B681A603B6803F1B0
:1001B00004033B607B6803F104037B603A6840F210
:1001C0007803C2F200039A42ECD3084808494FF082
:1001D00000028842B8BF40F8042BFFF6FAAF00F0E7
:1001E00069F807F10807BD4680BD000078000020CF
:1001F0007800002080B400AFFEE700BF80B582B079
:1002000000AF4FF008004FF0010100F0D3F84FF4B9
:1002100070433B604FF001033B714FF00003BB7133
:100220004FF003037B714FF00003FB713B464FF42B
:100230004060C4F20200194600F0E6F807F1080732
:10024000BD4680BD80B582B000AF4FF001004FF0D9
:10025000010100F0AFF84FF001033B604FF00003E5
:100260003B714FF003037B714FF00003FB713B4682
:100270004FF00000C4F20200194600F0C5F807F183
:100280000807BD4680BD00BF80B483B000AF786072
:1002900000BF7B68002B0CBF00230123DBB27A6810
:1002A00002F1FF327A60002BF3D107F10C07BD4653
:1002B00080BC704780B500AF00F082F900F08EFA84
:1002C000FFF79CFFFFF7BEFF4FF44060C4F202004F
:1002D0004FF4805100F058F94FF6FF70C0F20F0054
:1002E000FFF7D2FF4FF44060C4F202004FF4005118
:1002F00000F04AF94FF6FF70C0F20F00FFF7C4FF9D
:100300004FF00000C4F202004FF0010100F01EF9AE
:100310000346002B1BD14FF44060C4F202004FF49F
:10032000804100F031F94FF6FF70C0F20F00FFF787
:10033000ABFF4FF44060C4F202004FF4004100F004
:1003400023F94FF6FF70C0F20F00FFF79DFF4FF447
:100350004060C4F202004FF4704100F023F94FF600
:10036000FF70C0F20F00FFF78FFF4FF000004FF05B
:10037000000140F62052C0F6000200F05DFA49F29A
:100380008060C0F29800FFF77FFF00F049FA4FF05D
:1003900000004FF0000140F62C52C0F6000200F0C1
:1003A0004BFA49F28060C0F29800FFF76DFF00F051
:1003B00037FA89E780B483B000AF78600B46FB70F2
:1003C000FB78002B0CD04FF46053C4F202034FF4BF
:1003D0006052C4F20202116B7A680A431A630DE09C
:1003E0004FF46053C4F202034FF46052C4F20202AD
:1003F000116B7A686FEA02020A401A6307F10C0770
:10040000BD4680BC704700BF80B487B000AF786045
:1004100039604FF000037B614FF000033B614FF008
:100420000003FB604FF000037B6186E07B694FF0C7
:10043000010202FA03F33B613B681A683B6913400F
:10044000FB60FA683B699A4273D17B681A687B69E2
:100450004FEA43034FF0030101FA03F36FEA03038A
:100460001A407B681A607B681A683B681B791946DA
:100470007B694FEA430301FA03F31A437B681A606E
:100480003B681B79012B03D03B681B79022B34D1CD
:100490007B689A687B694FEA43034FF0030101FAD6
:1004A00003F36FEA03031A407B689A607B689A68DB
:1004B0003B685B7919467B694FEA430301FA03F312
:1004C0001A437B689A607B685A687B699BB24FF0DD
:1004D000010101FA03F36FEA03031A407B685A60D3
:1004E0007B685A683B689B7919467B699BB201FA25
:1004F00003F39BB21A437B685A607B68DA687B69B6
:100500009BB24FEA43034FF0030101FA03F36FEA92
:1005100003031A407B68DA607B68DA683B68DB7942
:1005200019467B694FEA430301FA03F31A437B68D8
:10053000DA607B6903F101037B617B690F2B7FF636
:1005400075AF07F11C07BD4680BC704780B485B00D
:1005500000AF78600B467B804FF00003FB737B6835
:100560001A697B881340002B03D04FF00103FB7303
:1005700002E04FF00003FB73FB7B184607F1140702
:10058000BD4680BC704700BF80B483B000AF7860C8
:100590000B467B807B687A881A8307F10C07BD467F
:1005A00080BC704780B483B000AF78600B467B801E
:1005B0007B687A885A8307F10C07BD4680BC704778
:1005C00080B500AF4FF46053C4F202034FF46052A1
:1005D000C4F20202126842F001021A604FF4605342
:1005E000C4F202034FF000029A604FF46053C4F269
:1005F00002034FF46052C4F20202126822F08472C5
:1006000022F480321A604FF46053C4F2020343F2C2
:100610001002C2F200425A604FF46053C4F2020367
:100620004FF46052C4F20202126822F480221A606F
:100630004FF46053C4F202034FF00002DA6000F09E
:1006400009F84FF46D43CEF200034FF000629A6058
:1006500080BD00BF80B483B000AF4FF000037B606B
:100660004FF000033B604FF46053C4F202034FF4B9
:100670006052C4F20202126842F480321A604FF4EF
:100680006053C4F202031B6803F400333B607B68D1
:1006900003F101037B603B68002B03D17B68B3F55A
:1006A000A06FECD14FF46053C4F202031B6803F453
:1006B0000033002B03D04FF001033B6002E04FF00A
:1006C00000033B603B68012B40F082804FF4605395
:1006D000C4F202034FF46052C4F20202126C42F000
:1006E00080521A644FF4E043C4F200034FF4E04236
:1006F000C4F20002126842F480421A604FF4605360
:10070000C4F202034FF46052C4F2020292689A608B
:100710004FF46053C4F202034FF46052C4F2020279
:10072000926842F400429A604FF46053C4F20203AC
:100730004FF46052C4F20202926842F4A0529A60EE
:100740004FF46053C4F2020345F21942C0F2407202
:100750005A604FF46053C4F202034FF46052C4F283
:100760000202126842F080721A6000BF4FF46053B8
:10077000C4F202031B6803F00073002BF6D04FF4A1
:100780007053C4F2020340F205621A604FF46053E2
:10079000C4F202034FF46052C4F20202926822F0E3
:1007A00003029A604FF46053C4F202034FF46052A4
:1007B000C4F20202926842F002029A6000BF4FF453
:1007C0006053C4F202039B6803F00C03082BF6D1BC
:1007D00007F10C07BD4680BC704700BF80B500AF75
:1007E00000F04AF848F2A060C0F2010000F082FA7E
:1007F00000F01CF94FF0280000F054F94FF006000B
:1008000000F050F94FF00C0000F04CF94FF00100EF
:1008100000F048F94CF2503000F06CFA80BD00BF97
:1008200080B500AF4FF0010000F03CF94CF25030C1
:1008300000F060FA80BD00BF80B582B000AF0B460B
:100840003A600246FA71BB71FA79BB7910461946D3
:1008500000F028FA08E03B681B78184600F0A2F97F
:100860003B6803F101033B603B681B78002BF2D12E
:1008700007F10807BD4680BD80B584B000AF4FF0DA
:100880000003FB7362E0F97B40F20002C2F2000257
:100890000B464FEA83035B184FEA8303D31803F137
:1008A0000C031B6818464FF00101FFF783FDF97B2D
:1008B00040F20002C2F200020B464FEA83035B18CB
:1008C0004FEA8303D31803F108031B887B604FF0C2
:1008D00001033B724FF00003BB724FF00103FB7248
:1008E0004FF002037B72F97B40F20002C2F2000279
:1008F0000B464FEA83035B184FEA8303D31803F1D7
:1009000004031A6807F1040310461946FFF77CFD3B
:10091000F97B40F20002C2F200020B464FEA830369
:100920005B184FEA8303D31803F110031B78002BE5
:1009300004D1FB7B184600F011F803E0FB7B18465E
:1009400000F036F8FB7B03F10103FB73FB7B052B07
:1009500099D907F11007BD4680BD00BF80B483B0B0
:1009600000AF0346FB71F97940F20002C2F20002C7
:100970000B464FEA83035B184FEA8303D31803F156
:1009800004031868F97940F20002C2F200020B4633
:100990004FEA83035B184FEA8303D31803F108037C
:1009A0001B88438307F10C07BD4680BC704700BF1E
:1009B00080B483B000AF0346FB71F97940F20002C6
:1009C000C2F200020B464FEA83035B184FEA83032F
:1009D000D31803F104031868F97940F20002C2F257
:1009E00000020B464FEA83035B184FEA8303D318D8
:1009F00003F108031B88038307F10C07BD4680BC85
:100A0000704700BF80B500AF4FF00100FFF7D0FF87
:100A10004FF47A7000F06EF94FF00100FFF79EFF7F
:100A20004FF47A7000F066F980BD00BF80B500AF6A
:100A30004FF00200FFF7BCFF4FF00300FFF7B8FFD5
:100A40004FF00400FFF78AFF4FF00500FFF786FF25
:100A5000FFF7D8FF4CF2503000F04CF9FFF7D2FF0F
:100A60004CF2503000F046F9FFF7CCFF4CF250301A
:100A700000F040F94FF00200FFF770FF4FF0030065
:100A8000FFF796FF4FF00400FFF768FF4FF00500F7
:100A9000FFF764FFFFF7B6FF4CF2503000F02AF981
:100AA00080BD00BF80B582B000AF0346FB714FF040
:100AB0000000FFF753FFFB795BB2002B04DA4FF025
:100AC0000500FFF775FF03E04FF00500FFF746FF55
:100AD000FB7903F04003002B04D04FF00400FFF734
:100AE00067FF03E04FF00400FFF738FFFB7903F0E6
:100AF0002003002B04D04FF00300FFF759FF03E061
:100B00004FF00300FFF72AFFFB7903F01003002BDF
:100B100004D04FF00200FFF74BFF03E04FF002005C
:100B2000FFF71CFFFFF76EFFFB7903F00803002BB4
:100B300004D04FF00500FFF73BFF03E04FF0050046
:100B4000FFF70CFFFB7903F00403002B04D04FF0F8
:100B50000400FFF72DFF03E04FF00400FFF7FEFE57
:100B6000FB7903F00203002B04D04FF00300FFF7E2
:100B70001FFF03E04FF00300FFF7F0FEFB7903F0E7
:100B80000103002B04D04FF00200FFF711FF03E038
:100B90004FF00200FFF7E2FEFFF734FF07F108070E
:100BA000BD4680BD80B582B000AF0346FB714FF0FB
:100BB0000000FFF7FDFEFB795BB2002B04DA4FF07B
:100BC0000500FFF7F5FE03E04FF00500FFF7C6FE56
:100BD000FB7903F04003002B04D04FF00400FFF733
:100BE000E7FE03E04FF00400FFF7B8FEFB7903F0E7
:100BF0002003002B04D04FF00300FFF7D9FE03E0E1
:100C00004FF00300FFF7AAFEFB7903F01003002B5F
:100C100004D04FF00200FFF7CBFE03E04FF00200DC
:100C2000FFF79CFEFFF7EEFEFB7903F00803002BB5
:100C300004D04FF00500FFF7BBFE03E04FF00500C6
:100C4000FFF78CFEFB7903F00403002B04D04FF078
:100C50000400FFF7ADFE03E04FF00400FFF77EFE57
:100C6000FB7903F00203002B04D04FF00300FFF7E1
:100C70009FFE03E04FF00300FFF770FEFB7903F0E7
:100C80000103002B04D04FF00200FFF791FE03E0B8
:100C90004FF00200FFF762FEFFF7B4FE07F108070E
:100CA000BD4680BD80B584B000AF02460B46FA71E8
:100CB000BB71FB790F2B02D94FF00003FB71BB799D
:100CC000012B02D94FF00003BB71BB794FEA8313AC
:100CD000FB73FA7BFB791343FB73FB7B63F07F03AE
:100CE000FB73FB7B1846FFF7DDFE07F11007BD46DF
:100CF00080BD00BF80B483B000AF786000BF7B6868
:100D0000002B0CBF00220122D2B203F1FF337B6023
:100D1000002AF4D107F10C07BD4680BC704700BF24
:100D20005444494920465242420000006C6F206DF5
:080D3000656A6F7221000000EA
:100D38000000000000100240200000001000000029
:100D48000000000001000000001002404000000008
:100D58001000000000000000020000000010024027
:100D680080000000100000000000000003000000E8
:100D78000010024000010000100000000000000008
:100D880004000000001002400002000010000000F3
:100D980000000000050000000010024000040000F0
:080DA800100000000000000033
:0400000508000000EF
:00000001FF
