:020000040800F2
:100000008008002089010008F5010008F5010008BA
:10001000F5010008F5010008F501000800000000E6
:10002000000000000000000000000000F5010008D2
:10003000F501000800000000F5010008F5010008C6
:10004000F5010008F5010008F5010008F5010008B8
:10005000F5010008F5010008F5010008F5010008A8
:10006000F5010008F5010008F5010008F501000898
:10007000F5010008F5010008F5010008F501000888
:10008000F5010008F5010008F5010008F501000878
:10009000F5010008F5010008F5010008F501000868
:1000A000F5010008F5010008F5010008F501000858
:1000B000F5010008F5010008F5010008F501000848
:1000C000F5010008F5010008F5010008F501000838
:1000D000F5010008F5010008F5010008F501000828
:1000E000F5010008F5010008F5010008F501000818
:1000F000F5010008F5010008F5010008F501000808
:10010000F5010008F5010008F5010008F5010008F7
:10011000F5010008F5010008F5010008F5010008E7
:10012000F5010008F5010008F5010008F5010008D7
:10013000F5010008F5010008F5010008F5010008C7
:10014000F5010008F5010008F5010008F5010008B7
:10015000F5010008F5010008F5010008F5010008A7
:10016000F5010008F5010008F5010008F501000897
:10017000F5010008F5010008F5010008F501000887
:10018000F5010008F501000880B582B000AF41F626
:100190006413C0F600037B6040F20003C2F2000368
:1001A0003B600BE07B681A683B681A603B6803F1B0
:1001B00004033B607B6803F104037B603A6840F210
:1001C0007803C2F200039A42ECD3084808494FF082
:1001D00000028842B8BF40F8042BFFF6FAAF00F0E7
:1001E0006BF807F10807BD4680BD000078000020CD
:1001F0007C00002080B400AFFEE700BF80B582B075
:1002000000AF4FF008004FF0010100F085F94FF406
:1002100070433B604FF001033B714FF00003BB7133
:100220004FF003037B714FF00003FB713B464FF42B
:100230004060C4F20200194600F0E2FB07F1080733
:10024000BD4680BD80B582B000AF4FF001004FF0D9
:10025000010100F061F94FF001033B604FF0000332
:100260003B714FF003037B714FF00003FB713B4682
:100270004FF00000C4F20200194600F0C1FB07F184
:100280000807BD4680BD00BF80B483B000AF786072
:1002900000BF7B68002B0CBF00230123DBB27A6810
:1002A00002F1FF327A60002BF3D107F10C07BD4653
:1002B00080BC70470000000080B582B000AF4FF0F6
:1002C00000037B6000F096FC00F058FEFFF796FFFD
:1002D000FFF7B8FF00F09CFD00E000BF48F2A0600F
:1002E000C0F20100FFF7D0FF00F01AFE024640F214
:1002F0007803C2F200031A604FF44060C4F20200B7
:100300004FF4704100F068FC40F27803C2F2000341
:100310001B68184601F026FA02460B46104619469D
:1003200075A3D3E9002301F0E3FA0346002B23D0A1
:1003300040F27803C2F200031B68184601F012FA7B
:1003400002460B46104619466DA3D3E9002301F07F
:10035000EDFA0346002B0FD04FF44060C4F20200C8
:100360004FF4805100F02AFC4FF44060C4F20200C8
:100370004FF4604100F030FC40F27803C2F2000319
:100380001B68184601F0EEF902460B461046194666
:1003900059A3D3E9002301F0C9FA0346002B23D067
:1003A00040F27803C2F200031B68184601F0DAF944
:1003B00002460B461046194653A3D3E9002301F029
:1003C00097FA0346002B0FD04FF44060C4F20200AE
:1003D0004FF4405100F0F2FB4FF44060C4F20200D1
:1003E0004FF4404100F0F8FB40F27803C2F2000302
:1003F0001B68184601F0B6F902460B46104619462E
:1004000041A3D3E9002301F091FA0346002B23D046
:1004100040F27803C2F200031B68184601F0A2F90B
:1004200002460B461046194639A3D3E9002301F0D2
:100430005FFA0346002B0FD04FF44060C4F2020075
:100440004FF4E04100F0BAFB4FF44060C4F2020008
:100450004FF4004100F0C0FB40F27803C2F2000309
:100460001B68184601F07EF902460B4610461946F5
:1004700027A3D3E9002301F059FA0346002B07D044
:100480004FF44060C4F202004FF4704100F096FB5C
:100490004FF00000C4F202004FF0010100F070FBC9
:1004A00003467B607B68002B3FF417AF4FF00000E2
:1004B0004FF0000141F64012C0F6000200F08CFD42
:1004C00049F28060C0F29800FFF7DEFE00F078FD90
:1004D0004FF000004FF0000141F65812C0F6000244
:1004E00000F07AFD49F28060C0F29800FFF7CCFE80
:1004F00000F066FDF1E600BF0000000000FE8F4046
:1005000000000000009869400000000000FE9F40CD
:100510000000000080FEA74080B483B000AF786088
:100520000B46FB70FB78002B0CD04FF46053C4F2E9
:1005300002034FF46052C4F20202116B7A680A435C
:100540001A630DE04FF46053C4F202034FF460529B
:10055000C4F20202116B7A686FEA02020A401A635F
:1005600007F10C07BD4680BC704700BF80B483B064
:1005700000AF78600B46FB70FB78002B0CD04FF47B
:100580006053C4F202034FF46052C4F20202516C91
:100590007A680A435A640DE04FF46053C4F20203D0
:1005A0004FF46052C4F20202516C7A686FEA0202A0
:1005B0000A405A6407F10C07BD4680BC704700BF73
:1005C00080B485B000AF786039604FF00003FB6005
:1005D0004FF00003FB727B685B68FB60FB6823F0F5
:1005E000407323F48073FB603B681B794FEA03225E
:1005F0003B681B681343FA681343FB607B68FA6827
:100600005A607B689B68FB60FA684FF2FD73CCF21E
:10061000FF031340FB603B681A693B68DB681A43C1
:100620003B689B681A433B685B794FEA430313437B
:10063000FA681343FB607B68FA689A607B68DB6A40
:10064000FB60FB6823F47003FB603B681B7D03F1D8
:10065000FF33DAB2FB7A1343FB72FB7A4FEA0353A0
:10066000FA681343FB607B68FA68DA6207F11407E3
:10067000BD4680BC704700BF80B483B000AF7860D7
:100680007B684FF000021A607B684FF000021A711D
:100690007B684FF000025A717B684FF000029A604D
:1006A0007B684FF00002DA607B684FF000021A614D
:1006B0007B684FF001021A7507F10C07BD4680BC3C
:1006C000704700BF80B485B000AF78604FF0000382
:1006D000FB604FF40C53C4F201035B68FB60FA68E3
:1006E00043F2E003CFF6FC731340FB607B681A68AB
:1006F0007B685B681A437B689B681A437B68DB688E
:100700001343FA681343FB604FF40C53C4F2010324
:10071000FA685A6007F11407BD4680BC704700BFF5
:1007200080B483B000AF78607B684FF000021A603D
:100730007B684FF000025A607B684FF000029A60BD
:100740007B684FF00002DA6007F10C07BD4680BC01
:10075000704700BF80B483B000AF78600B46FB7079
:10076000FB78002B06D07B689B6843F001027B6816
:100770009A6005E07B689B6823F001027B689A60C1
:1007800007F10C07BD4680BC704700BF80B487B03E
:1007900000AF7860F970BA707B704FF000037B6136
:1007A0004FF000033B614FF00003FB60FB78092B27
:1007B00027D97B68DB687B61FA7813464FEA4303ED
:1007C0009B18A3F11E034FF0070202FA03F33B61EB
:1007D0003B696FEA03037A6913407B617978FA78A1
:1007E00013464FEA43039B18A3F11E0301FA03F3D8
:1007F0003B617A693B6913437B617B687A69DA60A4
:1008000022E07B681B697B61FA7813464FEA430359
:100810009B184FF0070202FA03F33B613B696FEA52
:1008200003037A6913407B617978FA7813464FEABB
:1008300043039B1801FA03F33B617A693B69134355
:100840007B617B687A691A617B689B6B7B617B69E2
:1008500003F440134FEA1353FB60FB68DBB26FEA0B
:100860000303DAB2BB78D318DBB203F10303DBB2C4
:100870001A4613464FEA83039B184FF01F0202FAF1
:1008800003F33B613B696FEA03037A6913407B61C1
:10089000F978FB68DBB26FEA0303DAB2BB78D318EE
:1008A000DBB203F10303DBB21A4613464FEA8303BC
:1008B0009B1801FA03F33B617A693B6913437B613F
:1008C0007B687A699A6307F11C07BD4680BC704754
:1008D00080B485B000AF78600B46FB704FF000032A
:1008E000FB604FF00003BB607B689B6BFB60FB68A9
:1008F00023F44013FB60FB7803F1FF33BB60BB685C
:100900004FEA0353FA681343FB607B68FA689A6303
:1009100007F11407BD4680BC704700BF80B485B0A6
:1009200000AF786013460A46FA703B804FF0000330
:10093000FB607B68FB60FA78FB68D318FB60FB68A0
:100940003A881A6007F11407BD4680BC704700BFA3
:1009500080B483B000AF78607B689B6843F480020A
:100960007B689A6007F10C07BD4680BC704700BFEA
:1009700080B485B000AF78600B46FB704FF0000389
:10098000FB607B68FB60FA78FB68D31803F12803EF
:10099000FB60FB681B689BB2184607F11407BD4655
:1009A00080BC704780B485B000AF78600B46FB70A8
:1009B0004FF00003FB737B681A68FB781340002B31
:1009C00003D04FF00103FB7302E04FF00003FB7311
:1009D000FB7B184607F11407BD4680BC704700BF7B
:1009E00080B483B000AF78600B46FB70FB786FEA91
:1009F00003027B681A6007F10C07BD4680BC704794
:100A000080B487B000AF786039604FF000037B613D
:100A10004FF000033B614FF00003FB604FF0000319
:100A20007B6186E07B694FF0010202FA03F33B61D0
:100A30003B681A683B691340FB60FA683B699A425D
:100A400073D17B681A687B694FEA43034FF0030157
:100A500001FA03F36FEA03031A407B681A607B68AC
:100A60001A683B681B7919467B694FEA430301FA10
:100A700003F31A437B681A603B681B79012B03D090
:100A80003B681B79022B34D17B689A687B694FEAFB
:100A900043034FF0030101FA03F36FEA03031A4023
:100AA0007B689A607B689A683B685B7919467B69CA
:100AB0004FEA430301FA03F31A437B689A607B68A9
:100AC0005A687B699BB24FF0010101FA03F36FEAA8
:100AD00003031A407B685A607B685A683B689B79BD
:100AE00019467B699BB201FA03F39BB21A437B68F8
:100AF0005A607B68DA687B699BB24FEA43034FF028
:100B0000030101FA03F36FEA03031A407B68DA601A
:100B10007B68DA683B68DB7919467B694FEA4303F7
:100B200001FA03F31A437B68DA607B6903F101037E
:100B30007B617B690F2B7FF675AF07F11C07BD4604
:100B400080BC704780B483B000AF78607B684FF69C
:100B5000FF721A607B684FF000021A717B684FF0D9
:100B600000025A717B684FF000029A717B684FF067
:100B70000002DA7107F10C07BD4680BC704700BF68
:100B800080B485B000AF78600B467B804FF00003E7
:100B9000FB737B681A697B881340002B03D04FF0EE
:100BA0000103FB7302E04FF00003FB73FB7B18466D
:100BB00007F11407BD4680BC704700BF80B483B006
:100BC00000AF78600B467B807B687A881A8307F1D8
:100BD0000C07BD4680BC704780B483B000AF78601E
:100BE0000B467B807B687A885A8307F10C07BD46E9
:100BF00080BC704780B500AF4FF46053C4F202036D
:100C00004FF46052C4F20202126842F001021A600C
:100C10004FF46053C4F202034FF000029A604FF4A5
:100C20006053C4F202034FF46052C4F2020212682D
:100C300022F0847222F480321A604FF46053C4F2BE
:100C4000020343F21002C2F200425A604FF46053B2
:100C5000C4F202034FF46052C4F20202126822F49A
:100C600080221A604FF46053C4F202034FF0000276
:100C7000DA6000F009F84FF46D43CEF200034FF054
:100C800000629A6080BD00BF80B483B000AF4FF0B7
:100C900000037B604FF000033B604FF46053C4F2ED
:100CA00002034FF46052C4F20202126842F480322E
:100CB0001A604FF46053C4F202031B6803F400335C
:100CC0003B607B6803F101037B603B68002B03D131
:100CD0007B68B3F5A06FECD14FF46053C4F202030C
:100CE0001B6803F40033002B03D04FF001033B607B
:100CF00002E04FF000033B603B68012B40F0828034
:100D00004FF46053C4F202034FF46052C4F2020283
:100D1000126C42F080521A644FF4E043C4F20003B4
:100D20004FF4E042C4F20002126842F480421A60BA
:100D30004FF46053C4F202034FF46052C4F2020253
:100D400092689A604FF46053C4F202034FF4605209
:100D5000C4F20202926842F400429A604FF4605377
:100D6000C4F202034FF46052C4F20202926842F4E9
:100D7000A0529A604FF46053C4F2020345F2194244
:100D8000C0F240725A604FF46053C4F202034FF451
:100D90006052C4F20202126842F080721A6000BF10
:100DA0004FF46053C4F202031B6803F00073002B7E
:100DB000F6D04FF47053C4F2020340F205621A6099
:100DC0004FF46053C4F202034FF46052C4F20202C3
:100DD000926822F003029A604FF46053C4F2020357
:100DE0004FF46052C4F20202926842F002029A602A
:100DF00000BF4FF46053C4F202039B6803F00C037E
:100E0000082BF6D107F10C07BD4680BC704700BF28
:100E100080B58CB000AF4FF004004FF00101FFF738
:100E20007BFB07F128031846FFF78CFE4FF0020307
:100E3000BB624FF0030387F82C304FF0000387F8B4
:100E40002F3007F128034FF40060C4F20200194666
:100E5000FFF7D6FD4FF480704FF00101FFF786FBDE
:100E60003B461846FFF75CFC4FF000033B604FF435
:100E700080337B604FF00003BB604FF00003FB60EA
:100E80003B461846FFF71EFC07F110031846FFF714
:100E9000F3FB4FF000033B614FF000033B754FF055
:100EA00000037B754FF00003BB614FF000033B6212
:100EB0004FF0010387F8243007F110034FF400507E
:100EC000C4F201001946FFF77BFB4FF40050C4F257
:100ED00001004FF00101FFF7FBFC4FF40050C4F29A
:100EE00001004FF014014FF00002FFF717FD4FF41F
:100EF0000050C4F201004FF00B014FF001024FF01F
:100F00000703FFF743FC4FF40050C4F201004FF019
:100F10000101FFF71FFC07F13007BD4680BD00BF90
:100F200080B582B000AF4FF40050C4F201004FF022
:100F30000401FFF755FD4FF40050C4F20100FFF724
:100F400007FD00BF4FF40050C4F201004FF0040150
:100F5000FFF728FD0346002BF4D04FF40050C4F2F5
:100F600001004FF01401FFF703FD03467B607B682F
:100F7000184607F10807BD4680BD00BF80B500AF29
:100F800000F04AF848F2A060C0F2010000F082FAD6
:100F900000F01CF94FF0280000F054F94FF0060063
:100FA00000F050F94FF00C0000F04CF94FF0010048
:100FB00000F048F94CF2503000F06CFA80BD00BFF0
:100FC00080B500AF4FF0010000F03CF94CF250301A
:100FD00000F060FA80BD00BF80B582B000AF0B4664
:100FE0003A600246FA71BB71FA79BB79104619462C
:100FF00000F028FA08E03B681B78184600F0A2F9D8
:101000003B6803F101033B603B681B78002BF2D186
:1010100007F10807BD4680BD80B584B000AF4FF032
:101020000003FB7362E0F97B40F20002C2F20002AF
:101030000B464FEA83035B184FEA8303D31803F18F
:101040000C031B6818464FF00101FFF765FAF97BA6
:1010500040F20002C2F200020B464FEA83035B1823
:101060004FEA8303D31803F108031B887B604FF01A
:1010700001033B724FF00003BB724FF00103FB72A0
:101080004FF002037B72F97B40F20002C2F20002D1
:101090000B464FEA83035B184FEA8303D31803F12F
:1010A00004031A6807F1040310461946FFF7A8FC69
:1010B000F97B40F20002C2F200020B464FEA8303C2
:1010C0005B184FEA8303D31803F110031B78002B3E
:1010D00004D1FB7B184600F011F803E0FB7B1846B7
:1010E00000F036F8FB7B03F10103FB73FB7B052B60
:1010F00099D907F11007BD4680BD00BF80B483B009
:1011000000AF0346FB71F97940F20002C2F200021F
:101110000B464FEA83035B184FEA8303D31803F1AE
:1011200004031868F97940F20002C2F200020B468B
:101130004FEA83035B184FEA8303D31803F10803D4
:101140001B88438307F10C07BD4680BC704700BF76
:1011500080B483B000AF0346FB71F97940F200021E
:10116000C2F200020B464FEA83035B184FEA830387
:10117000D31803F104031868F97940F20002C2F2AF
:1011800000020B464FEA83035B184FEA8303D31830
:1011900003F108031B88038307F10C07BD4680BCDD
:1011A000704700BF80B500AF4FF00100FFF7D0FFE0
:1011B0004FF47A7000F06EF94FF00100FFF79EFFD8
:1011C0004FF47A7000F066F980BD00BF80B500AFC3
:1011D0004FF00200FFF7BCFF4FF00300FFF7B8FF2E
:1011E0004FF00400FFF78AFF4FF00500FFF786FF7E
:1011F000FFF7D8FF4CF2503000F04CF9FFF7D2FF68
:101200004CF2503000F046F9FFF7CCFF4CF2503072
:1012100000F040F94FF00200FFF770FF4FF00300BD
:10122000FFF796FF4FF00400FFF768FF4FF005004F
:10123000FFF764FFFFF7B6FF4CF2503000F02AF9D9
:1012400080BD00BF80B582B000AF0346FB714FF098
:101250000000FFF753FFFB795BB2002B04DA4FF07D
:101260000500FFF775FF03E04FF00500FFF746FFAD
:10127000FB7903F04003002B04D04FF00400FFF78C
:1012800067FF03E04FF00400FFF738FFFB7903F03E
:101290002003002B04D04FF00300FFF759FF03E0B9
:1012A0004FF00300FFF72AFFFB7903F01003002B38
:1012B00004D04FF00200FFF74BFF03E04FF00200B5
:1012C000FFF71CFFFFF76EFFFB7903F00803002B0D
:1012D00004D04FF00500FFF73BFF03E04FF005009F
:1012E000FFF70CFFFB7903F00403002B04D04FF051
:1012F0000400FFF72DFF03E04FF00400FFF7FEFEB0
:10130000FB7903F00203002B04D04FF00300FFF73A
:101310001FFF03E04FF00300FFF7F0FEFB7903F03F
:101320000103002B04D04FF00200FFF711FF03E090
:101330004FF00200FFF7E2FEFFF734FF07F1080766
:10134000BD4680BD80B582B000AF0346FB714FF053
:101350000000FFF7FDFEFB795BB2002B04DA4FF0D3
:101360000500FFF7F5FE03E04FF00500FFF7C6FEAE
:10137000FB7903F04003002B04D04FF00400FFF78B
:10138000E7FE03E04FF00400FFF7B8FEFB7903F03F
:101390002003002B04D04FF00300FFF7D9FE03E039
:1013A0004FF00300FFF7AAFEFB7903F01003002BB8
:1013B00004D04FF00200FFF7CBFE03E04FF0020035
:1013C000FFF79CFEFFF7EEFEFB7903F00803002B0E
:1013D00004D04FF00500FFF7BBFE03E04FF005001F
:1013E000FFF78CFEFB7903F00403002B04D04FF0D1
:1013F0000400FFF7ADFE03E04FF00400FFF77EFEB0
:10140000FB7903F00203002B04D04FF00300FFF739
:101410009FFE03E04FF00300FFF770FEFB7903F03F
:101420000103002B04D04FF00200FFF791FE03E010
:101430004FF00200FFF762FEFFF7B4FE07F1080766
:10144000BD4680BD80B584B000AF02460B46FA7140
:10145000BB71FB790F2B02D94FF00003FB71BB79F5
:10146000012B02D94FF00003BB71BB794FEA831304
:10147000FB73FA7BFB791343FB73FB7B63F07F0306
:10148000FB73FB7B1846FFF7DDFE07F11007BD4637
:1014900080BD00BF80B483B000AF786000BF7B68C0
:1014A000002B0CBF00220122D2B203F1FF337B607C
:1014B000002AF4D107F10C07BD4680BC704700BF7D
:1014C00081F0004102E000BF83F0004330B54FEAF5
:1014D00041044FEA430594EA050F08BF90EA020F62
:1014E0001FBF54EA000C55EA020C7FEA645C7FEAF5
:1014F000655C00F0E2804FEA5454D4EB5555B8BF18
:101500006D420CDD2C4480EA020281EA030382EA88
:10151000000083EA010180EA020281EA0303362D1A
:1015200088BF30BD11F0004F4FEA01314FF4801CED
:101530004CEA113102D0404261EB410113F0004FFF
:101540004FEA03334CEA133302D0524263EB4303B6
:1015500094EA050F00F0A780A4F10104D5F1200E54
:101560000DDB02FA0EFC22FA05F2801841F10001AF
:1015700003FA0EF2801843FA05F359410EE0A5F183
:1015800020050EF1200E012A03FA0EFC28BF4CF0B4
:10159000020C43FA05F3C01851EBE37101F000456A
:1015A00007D54FF0000EDCF1000C7EEB00006EEB77
:1015B0000101B1F5801F1BD3B1F5001F0CD3490801
:1015C0005FEA30004FEA3C0C04F101044FEA445258
:1015D00012F5800F80F09A80BCF1004F08BF5FEADF
:1015E000500C50F1000041EB045141EA050130BDBF
:1015F0005FEA4C0C404141EB010111F4801FA4F162
:101600000104E9D191F0000F04BF01460020B1FAB6
:1016100081F308BF2033A3F10B03B3F120020CDAEE
:101620000C3208DD02F1140CC2F10C0201FA0CF0CC
:1016300021FA02F10CE002F11402D8BFC2F1200C31
:1016400001FA02F120FA0CFCDCBF41EA0C019040E7
:10165000E41AA2BF01EB0451294330BD6FEA040430
:101660001F3C1CDA0C340EDC04F11404C4F120021B
:1016700020FA04F001FA02F340EA030021FA04F32D
:1016800045EA030130BDC4F10C04C4F1200220FA84
:1016900002F001FA04F340EA0300294630BD21FAC2
:1016A00004F0294630BD94F0000F83F4801306BF88
:1016B00081F480110134013D4EE77FEA645C18BF7C
:1016C0007FEA655C29D094EA050F08BF90EA020F13
:1016D00005D054EA000C04BF1946104630BD91EA0B
:1016E000030F1EBF0021002030BD5FEA545C05D10E
:1016F0004000494128BF41F0004130BD14F580044D
:101700003CBF01F5801130BD01F0004545F0FE41C0
:1017100041F470014FF0000030BD7FEA645C1ABFF5
:10172000194610467FEA655C1CBF0B46024650EA2C
:10173000013406BF52EA033591EA030F41F4002158
:1017400030BD00BF90F0000F04BF0021704730B5DE
:101750004FF4806404F132044FF000054FF00001B3
:1017600050E700BF90F0000F04BF0021704730B574
:101770004FF4806404F1320410F0004548BF404249
:101780004FF000013EE700BF42004FEAE2014FEA9E
:1017900031014FEA02701FBF12F07F4393F07F4F79
:1017A00081F06051704792F0000F14BF93F07F4FAB
:1017B000704730B54FF4607401F0004521F00041EE
:1017C00020E700BF50EA010208BF704730B54FF074
:1017D00000050AE050EA010208BF704730B511F079
:1017E000004502D5404261EB41014FF4806404F1B1
:1017F00032045FEA915C3FF4DCAE4FF003025FEA33
:10180000DC0C18BF03325FEADC0C18BF033202EBBA
:10181000DC02C2F1200300FA03FC20FA02F001FA14
:1018200003FE40EA0E0021FA02F11444C1E600BFB3
:101830004FF0FF3C06E000BF4FF0010C02E000BF9C
:101840004FF0010C4DF804CD4FEA410C7FEA6C5C7F
:101850004FEA430C18BF7FEA6C5C1BD001B050EA22
:10186000410C0CBF52EA430C91EA030F02BF90EA0D
:10187000020F0020704710F1000F91EA030F58BFCC
:10188000994208BF90422CBFD8176FEAE37040F02E
:10189000010070474FEA410C7FEA6C5C02D150EACC
:1018A000013C07D14FEA430C7FEA6C5CD6D152EA87
:1018B000033CD3D05DF8040B704700BF844610464C
:1018C00062468C461946634600E000BF01B5FFF74B
:1018D000B7FF002848BF10F1000F01BD4DF808ED1B
:1018E000FFF7F4FF0CBF012000205DF808FB00BFEC
:1018F0004DF808EDFFF7EAFF34BF012000205DF846
:1019000008FB00BF4DF808EDFFF7E0FF94BF012092
:1019100000205DF808FB00BF4DF808EDFFF7CEFF93
:1019200094BF012000205DF808FB00BF4DF808EDD2
:10193000FFF7C4FF34BF012000205DF808FB00BFA3
:101940005072652D43616C656E7461646F722064C2
:1019500065205043420000006C6F206D656A6F7215
:041960002100000062
:1019640000000000001002402000000010000000F1
:1019740000000000010000000010024040000000D0
:1019840010000000000000000200000000100240EF
:1019940080000000100000000000000003000000B0
:1019A40000100240000100001000000000000000D0
:1019B40004000000001002400002000010000000BB
:1019C40000000000050000000010024000040000B8
:0819D4001000000000000000FB
:0400000508000000EF
:00000001FF
