:020000040800F2
:10000000980800208901000899050008A505000846
:10001000AD050008B5050008BD050008000000009A
:10002000000000000000000000000000C5050008FE
:10003000D105000800000000DD050008E905000802
:10004000F5010008F5010008F5010008F5010008B8
:10005000F5010008F5010008F5010008F5010008A8
:10006000F5010008F5010008F5010008F501000898
:10007000F5010008F5010008F5010008F501000888
:10008000F5010008F5010008F5010008F501000878
:10009000F5010008F5010008F5010008F501000868
:1000A000F5010008F5010008F5010008F501000858
:1000B000F5010008F5010008F5010008F501000848
:1000C000F5010008F5010008F5010008F501000838
:1000D000F5010008F5010008F5010008F501000828
:1000E000F5010008F5010008F5010008F501000818
:1000F000F5010008F5010008F5010008F501000808
:10010000F5010008F5010008F5010008F5010008F7
:10011000F5010008F5010008F5010008F5010008E7
:10012000F5010008F5010008F5010008F5010008D7
:10013000F5010008F5010008F5010008F5010008C7
:10014000F5010008F5010008F5010008F5010008B7
:10015000F5010008F5010008F5010008F5010008A7
:10016000F5010008F5010008F5010008F501000897
:10017000F5010008F5010008F5010008F501000887
:10018000F5010008F501000880B582B000AF41F626
:10019000F423C0F600037B6040F20003C2F20003C8
:1001A0003B600BE07B681A683B681A603B6803F1B0
:1001B00004033B607B6803F104037B603A6840F210
:1001C0008C03C2F200039A42ECD3084808494FF06E
:1001D00000028842B8BF40F8042BFFF6FAAF00F0E7
:1001E000B3F807F10807BD4680BD00008C00002071
:1001F0009800002080B400AFFEE700BF80B483B059
:1002000000AF03463960FB7197F90730002B10DA15
:100210004FF46D43CEF20003FA7902F00F02A2F11F
:1002200004013A68D2B24FEA0212D2B25B181A76CF
:100230000DE04FF46143CEF2000397F907103A68DE
:10024000D2B24FEA0212D2B25B1883F8002307F150
:100250000C07BD4680BC704780B582B000AF7860A7
:100260007A686FF07F439A4202D94FF001031FE092
:100270004EF21003CEF200037A6822F07F4202F1C0
:10028000FF325A604FF0FF304FF00F01FFF7B6FF1B
:100290004EF21003CEF200034FF000029A604EF2CD
:1002A0001003CEF200034FF007021A604FF0000374
:1002B000184607F10807BD4680BD00BF80B582B073
:1002C00000AF4FF008004FF0010100F011F94FF4BA
:1002D00070433B604FF001033B714FF00003BB7173
:1002E0004FF003037B714FF00003FB713B464FF46B
:1002F0004060C4F20200194600F0B8FE07F108079A
:10030000BD4680BD80B582B000AF4FF001004FF018
:10031000010100F0EDF84FF001033B604FF00003E6
:100320003B714FF003037B714FF00003FB713B46C1
:100330004FF00000C4F20200194600F097FE07F1EA
:100340000807BD4680BD00BF80B582B000AF00F099
:1003500069FF01F02BF9FFF7B1FFFFF7D3FF01F0C1
:100360006FF840F20003C2F200031A6844F6D35358
:10037000C1F26203A3FB02134FEA93131846FFF77F
:100380006BFF4FF4FA7000F083F801F0E1F80246D9
:1003900040F29403C2F200031A6040F29403C2F2E6
:1003A00000031B684FF4967202FB03F34FF08102C7
:1003B000C8F2080282FB0312D2184FEAE2224FEA87
:1003C000E373D21A40F29403C2F200031A6040F2BF
:1003D0009403C2F200031B6807F10402104641F6C1
:1003E000F021C0F600011A4600F028FE07F10403D0
:1003F0004FF000004FF001011A4601F005F94FF4EB
:10040000FA7000F045F801F0F3F84FF44060C4F2E0
:1004100002004FF4704100F0F7FE40F29403C2F284
:1004200000031B681D2B0FDC4FF44060C4F2020078
:100430004FF4805100F0DAFE4FF44060C4F2020045
:100440004FF4604100F0E0FE40F29403C2F200037A
:100450001B681D2B0FDD4FF44060C4F202004FF407
:10046000005100F0C3FE4FF44060C4F202004FF4AC
:10047000404100F0C9FE4FF4FA7000F009F84FF463
:100480004060C4F202004FF4704100F0BDFE78E716
:1004900080B483B000AF78607A6840F29003C2F213
:1004A00000031A6000BF40F29003C2F200031B6811
:1004B000002BF8D107F10C07BD4680BC704700BF88
:1004C00080B400AF40F29003C2F200031B68002B1F
:1004D0000BD040F29003C2F200031B6803F1FF321D
:1004E00040F29003C2F200031A60BD4680BC704720
:1004F00080B483B000AF78600B46FB70FB78002BB4
:100500000CD04FF46053C4F202034FF46052C4F2B3
:100510000202116B7A680A431A630DE04FF46053CC
:10052000C4F202034FF46052C4F20202116B7A6803
:100530006FEA02020A401A6307F10C07BD4680BC4D
:10054000704700BF80B483B000AF78600B46FB708B
:10055000FB78002B0CD04FF46053C4F202034FF42D
:100560006052C4F20202516C7A680A435A640DE088
:100570004FF46053C4F202034FF46052C4F202021B
:10058000516C7A686FEA02020A405A6407F10C075C
:10059000BD4680BC704700BF80B400AFBD4680BC84
:1005A000704700BF80B400AFFEE700BF80B400AF6B
:1005B000FEE700BF80B400AFFEE700BF80B400AF2D
:1005C000FEE700BF80B400AFBD4680BC704700BFEF
:1005D00080B400AFBD4680BC704700BF80B400AFA0
:1005E000BD4680BC704700BF80B500AFFFF768FF15
:1005F00080BD00BF80B485B000AF786039604FF037
:100600000003FB604FF00003FB727B685B68FB60DC
:10061000FB6823F0407323F48073FB603B681B7915
:100620004FEA03223B681B681343FA681343FB60DD
:100630007B68FA685A607B689B68FB60FA684FF2D7
:10064000FD73CCF2FF031340FB603B681A693B6803
:10065000DB681A433B689B681A433B685B794FEA47
:1006600043031343FA681343FB607B68FA689A609C
:100670007B68DB6AFB60FB6823F47003FB603B680C
:100680001B7D03F1FF33DAB2FB7A1343FB72FB7A73
:100690004FEA0353FA681343FB607B68FA68DA6237
:1006A00007F11407BD4680BC704700BF80B483B01B
:1006B00000AF78607B684FF000021A607B684FF0F3
:1006C00000021A717B684FF000025A717B684FF08C
:1006D00000029A607B684FF00002DA607B684FF09E
:1006E00000021A617B684FF001021A7507F10C07CE
:1006F000BD4680BC704700BF80B485B000AF786055
:100700004FF00003FB604FF40C53C4F201035B682D
:10071000FB60FA6843F2E003CFF6FC731340FB6022
:100720007B681A687B685B681A437B689B681A431E
:100730007B68DB681343FA681343FB604FF40C5388
:10074000C4F20103FA685A6007F11407BD4680BC81
:10075000704700BF80B483B000AF78607B684FF013
:1007600000021A607B684FF000025A607B684FF00D
:1007700000029A607B684FF00002DA6007F10C0714
:10078000BD4680BC704700BF80B483B000AF7860C6
:100790000B46FB70FB78002B06D07B689B6843F010
:1007A00001027B689A6005E07B689B6823F0010288
:1007B0007B689A6007F10C07BD4680BC704700BF9C
:1007C00080B487B000AF7860F970BA707B704FF07A
:1007D00000037B614FF000033B614FF00003FB60BF
:1007E000FB78092B27D97B68DB687B61FA78134695
:1007F0004FEA43039B18A3F11E034FF0070202FACE
:1008000003F33B613B696FEA03037A6913407B6141
:100810007978FA7813464FEA43039B18A3F11E0335
:1008200001FA03F33B617A693B6913437B617B689F
:100830007A69DA6022E07B681B697B61FA7813468B
:100840004FEA43039B184FF0070202FA03F33B61A0
:100850003B696FEA03037A6913407B617978FA7820
:1008600013464FEA43039B1801FA03F33B617A698D
:100870003B6913437B617B687A691A617B689B6B78
:100880007B617B6903F440134FEA1353FB60FB6801
:10089000DBB26FEA0303DAB2BB78D318DBB203F141
:1008A0000303DBB21A4613464FEA83039B184FF04B
:1008B0001F0202FA03F33B613B696FEA03037A69A3
:1008C00013407B61F978FB68DBB26FEA0303DAB2AD
:1008D000BB78D318DBB203F10303DBB21A4613462D
:1008E0004FEA83039B1801FA03F33B617A693B6982
:1008F00013437B617B687A699A6307F11C07BD46E5
:1009000080BC704780B485B000AF78600B46FB7048
:100910004FF00003FB604FF00003BB607B689B6BF4
:10092000FB60FB6823F44013FB60FB7803F1FF33AB
:10093000BB60BB684FEA0353FA681343FB607B68F4
:10094000FA689A6307F11407BD4680BC704700BF80
:1009500080B485B000AF786013460A46FA703B80D9
:100960004FF00003FB607B68FB60FA78FB68D318EC
:10097000FB60FB683A881A6007F11407BD4680BC2B
:10098000704700BF80B483B000AF78607B689B681D
:1009900043F480027B689A6007F10C07BD4680BC77
:1009A000704700BF80B485B000AF78600B46FB7025
:1009B0004FF00003FB607B68FB60FA78FB68D3189C
:1009C00003F12803FB60FB681B689BB2184607F124
:1009D0001407BD4680BC704780B485B000AF786016
:1009E0000B46FB704FF00003FB737B681A68FB78C3
:1009F0001340002B03D04FF00103FB7302E04FF0D4
:100A00000003FB73FB7B184607F11407BD4680BC4F
:100A1000704700BF80B483B000AF78600B46FB70B6
:100A2000FB786FEA03027B681A6007F10C07BD468A
:100A300080BC704780B483B000AF78600B46FB7019
:100A40007B68FA781A704FF00103184607F10C071B
:100A5000BD4680BC704700BF80B485B000AF7860F1
:100A600039604FF00003FB600FE03B681A787B6849
:100A70001A707B6803F101037B603B6803F101039B
:100A80003B60FB6803F10103FB603B681B78002BB4
:100A9000EBD1FB68184607F11407BD4680BC7047D0
:100AA00080B586B000AFF8607A603B600B46FB72A1
:100AB0004FF000037B617B6803F1FF337B603B6891
:100AC000092B25D93A684CF6CD43CCF6CC43A3FB91
:100AD00002134FEAD303FA7AF86811467A68FFF7EF
:100AE000DFFF78617B69FA68D318FB6013E0FB7A5B
:100AF000F8681946FFF79EFFFB6803F10103FB60EE
:100B00007B6903F101037B617B6803F1FF337B6049
:100B10007B68002BEBDC39684CF6CD43CCF6CC433C
:100B2000A3FB01234FEAD30213464FEA83039B182A
:100B30004FEA4303CA1AD3B203F13003DBB2F868B9
:100B40001946FFF777FF03467A69D3187B617B6903
:100B5000184607F11807BD4680BD00BF80B586B0B6
:100B600000AFF8607A603B600B46FB724FF0000309
:100B70007B613B68002B04DA3B68C3F100033B61F7
:100B800001E03B683B617B6803F1FF337B603B69BD
:100B9000092B2AD93B68002B12DA3A694CF6CD436F
:100BA000CCF6CC43A3FB02134FEAD303C3F10003FB
:100BB000FA7AF86811467A68FFF7D0FF78610FE09B
:100BC0003A694CF6CD43CCF6CC43A3FB02134FEA73
:100BD000D303FA7AF86811467A68FFF7BFFF7861A5
:100BE0007B69FA68D318FB602BE03B68002B15DAB1
:100BF0007B6803F1FF337B6010E0FB7AF8681946ED
:100C0000FFF718FFFB6803F10103FB607B6903F149
:100C100001037B617B6803F1FF337B607B68002B02
:100C2000EBDC3B68002B0CDAF8684FF02D01FFF786
:100C300001FF03467A69D3187B61FB6803F1010366
:100C4000FB6039694CF6CD43CCF6CC43A3FB0123C2
:100C50004FEAD30213464FEA83039B184FEA43033C
:100C6000CA1AD3B203F13003DBB2F8681946FFF7B2
:100C7000E1FE03467A69D3187B617B69184607F168
:100C80001807BD4680BD00BF80B588B002AFF860D0
:100C90007A600A46FA72BB724FF000037B617B6890
:100CA00003F1FF337B603B6A4FEA1313002B24D020
:100CB0003B6A4FEA1311FA7ABB7A0091F868114641
:100CC0007A68FFF7E1FF03467A69D3187B617B6995
:100CD000FA68D318FB6013E0FB7AF8681946FFF74F
:100CE000A9FEFB6803F10103FB607B6903F10103CB
:100CF0007B617B6803F1FF337B607B68002BEBDC5F
:100D00003B6A03F00F03092B0CD83B6ADBB203F0FC
:100D10000F03DBB203F13003DBB2F8681946FFF7CB
:100D200089FE1BE0BB7A002B0CD03B6ADBB203F0E0
:100D30000F03DBB203F13703DBB2F8681946FFF7A4
:100D400079FE0BE03B6ADBB203F00F03DBB203F189
:100D50005703DBB2F8681946FFF76CFE7B6903F1B5
:100D600001037B617B69184607F11807BD4680BD0A
:100D700080B58AB002AFF860B9607A603B604FF02E
:100D80000003BB614FF000037B61FB68002B00F0A8
:100D90001C81FB684FF000021A7016E17B681B781B
:100DA000252B10D07B681A78FB681A70FB6803F15A
:100DB0000103FB607B6803F101037B607B6903F146
:100DC00001037B6102E17B6803F101031B78252BA2
:100DD00010D1FB684FF025021A70FB6803F1010384
:100DE000FB607B6803F102037B607B6903F1010315
:100DF0007B61EBE04FF02003FB774FF00003BB7704
:100E00007B6803F101037B607B681B78302B1BD16F
:100E10004FF03003FB777B6803F101037B6013E045
:100E2000BB7F1A464FEA8202D3184FEA4303DAB275
:100E30007B681B78D318DBB2A3F13003BB777B68E8
:100E400003F101037B6000E000BF7B681B782F2B60
:100E500003D97B681B78392BE2D9BA7F7B69D31819
:100E60001A46BB689A4205D9BB68DAB27B69DBB225
:100E7000D31ABB777B681B78A3F15803202B00F2B1
:100E8000948001A252F823F05D0F0008AB0F000818
:100E9000AB0F0008AB0F0008AB0F0008AB0F00084A
:100EA000AB0F0008AB0F0008AB0F0008AB0F00083A
:100EB000AB0F0008930F00080D0F0008AB0F0008E0
:100EC000AB0F0008AB0F0008AB0F00080D0F0008B8
:100ED000AB0F0008AB0F0008AB0F0008AB0F00080A
:100EE000AB0F0008AB0F0008AB0F0008AB0F0008FA
:100EF000AB0F00087D0F0008AB0F0008250F00089E
:100F0000AB0F0008AB0F00083D0F0008BA7F3B682D
:100F100003F1040139601B68F97FF868FFF71EFED2
:100F2000B86145E0BA7F3B6803F1040139601B6892
:100F3000F97FF868FFF7B4FDB86139E0BA7F3B6824
:100F400003F1040139601968FB7F0091F8681946C4
:100F50004FF00003FFF798FEB86129E0BA7F3B68C5
:100F600003F1040139601968FB7F0091F8681946A4
:100F70004FF00103FFF788FEB86119E03B6803F109
:100F800004023A601B68F8681946FFF765FDB8610E
:100F90000EE03B6803F104023A601B68DBB2F868BC
:100FA0001946FFF747FDB86102E04FF0FF332CE030
:100FB0007B6803F101037B60BB69FA68D318FB60AF
:100FC0007A69BB69D3187B6100E000BF7B681B783E
:100FD000002B04D07A69BB689A42FFF4DFAE7A69CD
:100FE000BB689A4204D2FB684FF000021A700BE013
:100FF000FB6803F1FF33FB60FB684FF000021A70DF
:101000007B6903F1FF337B617B69184607F1200799
:10101000BD4680BD80B584B000AFF860B9607A602D
:10102000F8684FF06401BA687B68FFF7A1FE0346D9
:10103000184607F11007BD4680BD00BF0EB480B54D
:1010400085B000AF786007F12003BB607868F9696C
:10105000BA68FFF7DFFFF860FB68184607F114076E
:10106000BD46BDE8804003B0704700BF80B487B084
:1010700000AF786039604FF000037B614FF00003F0
:101080003B614FF00003FB604FF000037B6186E0A3
:101090007B694FF0010202FA03F33B613B681A6877
:1010A0003B691340FB60FA683B699A4273D17B68E5
:1010B0001A687B694FEA43034FF0030101FA03F317
:1010C0006FEA03031A407B681A607B681A683B6802
:1010D0001B7919467B694FEA430301FA03F31A436C
:1010E0007B681A603B681B79012B03D03B681B7936
:1010F000022B34D17B689A687B694FEA43034FF037
:10110000030101FA03F36FEA03031A407B689A6054
:101110007B689A683B685B7919467B694FEA4303B1
:1011200001FA03F31A437B689A607B685A687B690B
:101130009BB24FF0010101FA03F36FEA03031A4077
:101140007B685A607B685A683B689B7919467B6963
:101150009BB201FA03F39BB21A437B685A607B6827
:10116000DA687B699BB24FEA43034FF0030101FA4F
:1011700003F36FEA03031A407B68DA607B68DA687E
:101180003B68DB7919467B694FEA430301FA03F3B5
:101190001A437B68DA607B6903F101037B617B6939
:1011A0000F2B7FF675AF07F11C07BD4680BC70475B
:1011B00080B483B000AF78607B684FF6FF721A602E
:1011C0007B684FF000021A717B684FF000025A7181
:1011D0007B684FF000029A717B684FF00002DA7171
:1011E00007F10C07BD4680BC704700BF80B483B0D8
:1011F00000AF78600B467B807B687A881A8307F1A2
:101200000C07BD4680BC704780B483B000AF7860E7
:101210000B467B807B687A885A8307F10C07BD46B2
:1012200080BC704780B500AF4FF46053C4F2020336
:101230004FF46052C4F20202126842F001021A60D6
:101240004FF46053C4F202034FF000029A604FF46F
:101250006053C4F202034FF46052C4F202021268F7
:1012600022F0847222F480321A604FF46053C4F288
:10127000020343F21002C2F200425A604FF460537C
:10128000C4F202034FF46052C4F20202126822F464
:1012900080221A604FF46053C4F202034FF0000240
:1012A000DA6000F009F84FF46D43CEF200034FF01E
:1012B00000629A6080BD00BF80B483B000AF4FF081
:1012C00000037B604FF000033B604FF46053C4F2B7
:1012D00002034FF46052C4F20202126842F48032F8
:1012E0001A604FF46053C4F202031B6803F4003326
:1012F0003B607B6803F101037B603B68002B03D1FB
:101300007B68B3F5A06FECD14FF46053C4F20203D5
:101310001B6803F40033002B03D04FF001033B6044
:1013200002E04FF000033B603B68012B40F08280FD
:101330004FF46053C4F202034FF46052C4F202024D
:10134000126C42F080521A644FF4E043C4F200037E
:101350004FF4E042C4F20002126842F480421A6084
:101360004FF46053C4F202034FF46052C4F202021D
:1013700092689A604FF46053C4F202034FF46052D3
:10138000C4F20202926842F400429A604FF4605341
:10139000C4F202034FF46052C4F20202926842F4B3
:1013A000A0529A604FF46053C4F2020345F219420E
:1013B000C0F240725A604FF46053C4F202034FF41B
:1013C0006052C4F20202126842F080721A6000BFDA
:1013D0004FF46053C4F202031B6803F00073002B48
:1013E000F6D04FF47053C4F2020340F205621A6063
:1013F0004FF46053C4F202034FF46052C4F202028D
:10140000926822F003029A604FF46053C4F2020320
:101410004FF46052C4F20202926842F002029A60F3
:1014200000BF4FF46053C4F202039B6803F00C0347
:10143000082BF6D107F10C07BD4680BC704700BFF2
:1014400080B58CB000AF4FF004004FF00101FFF702
:101450004FF807F128031846FFF7AAFE4FF00203E2
:10146000BB624FF0030387F82C304FF0000387F87E
:101470002F3007F128034FF40060C4F20200194630
:10148000FFF7F4FD4FF480704FF00101FFF75AF8B9
:101490003B461846FFF75EF94FF000033B604FF400
:1014A00080337B604FF00003BB604FF00003FB60B4
:1014B0003B461846FFF720F907F110031846FFF7DF
:1014C000F5F84FF000033B614FF000033B754FF020
:1014D00000037B754FF00003BB614FF000033B62DC
:1014E0004FF0010387F8243007F110034FF4005048
:1014F000C4F201001946FFF77DF84FF40050C4F222
:1015000001004FF00101FFF7FDF94FF40050C4F264
:1015100001004FF014014FF00002FFF719FA4FF4E9
:101520000050C4F201004FF00B014FF001024FF0E8
:101530000703FFF745F94FF40050C4F201004FF0E4
:101540000101FFF721F907F13007BD4680BD00BF5B
:1015500080B582B000AF4FF40050C4F201004FF0EC
:101560000401FFF757FA4FF40050C4F20100FFF7EF
:1015700009FA00BF4FF40050C4F201004FF004011B
:10158000FFF72AFA0346002BF4D04FF40050C4F2C0
:1015900001004FF01401FFF705FA03467B607B68FA
:1015A000184607F10807BD4680BD00BF80B500AFF3
:1015B00000F04AF848F2A060C0F2010000F082FAA0
:1015C00000F01CF94FF0280000F054F94FF006002D
:1015D00000F050F94FF00C0000F04CF94FF0010012
:1015E00000F048F94CF2503000F06CFA80BD00BFBA
:1015F00080B500AF4FF0010000F03CF94CF25030E4
:1016000000F060FA80BD00BF80B582B000AF0B462D
:101610003A600246FA71BB71FA79BB7910461946F5
:1016200000F028FA08E03B681B78184600F0A2F9A1
:101630003B6803F101033B603B681B78002BF2D150
:1016400007F10807BD4680BD80B584B000AF4FF0FC
:101650000003FB7362E0F97B40F21402C2F2000265
:101660000B464FEA83035B184FEA8303D31803F159
:101670000C031B6818464FF00101FEF739FFF97B98
:1016800040F21402C2F200020B464FEA83035B18D9
:101690004FEA8303D31803F108031B887B604FF0E4
:1016A00001033B724FF00003BB724FF00103FB726A
:1016B0004FF002037B72F97B40F21402C2F2000287
:1016C0000B464FEA83035B184FEA8303D31803F1F9
:1016D00004031A6807F1040310461946FFF7C6FC15
:1016E000F97B40F21402C2F200020B464FEA830378
:1016F0005B184FEA8303D31803F110031B78002B08
:1017000004D1FB7B184600F011F803E0FB7B184680
:1017100000F036F8FB7B03F10103FB73FB7B052B29
:1017200099D907F11007BD4680BD00BF80B483B0D2
:1017300000AF0346FB71F97940F21402C2F20002D5
:101740000B464FEA83035B184FEA8303D31803F178
:1017500004031868F97940F21402C2F200020B4641
:101760004FEA83035B184FEA8303D31803F108039E
:101770001B88438307F10C07BD4680BC704700BF40
:1017800080B483B000AF0346FB71F97940F21402D4
:10179000C2F200020B464FEA83035B184FEA830351
:1017A000D31803F104031868F97940F21402C2F265
:1017B00000020B464FEA83035B184FEA8303D318FA
:1017C00003F108031B88038307F10C07BD4680BCA7
:1017D000704700BF80B500AF4FF00100FFF7D0FFAA
:1017E0004FF47A7000F06EF94FF00100FFF79EFFA2
:1017F0004FF47A7000F066F980BD00BF80B500AF8D
:101800004FF00200FFF7BCFF4FF00300FFF7B8FFF7
:101810004FF00400FFF78AFF4FF00500FFF786FF47
:10182000FFF7D8FF4CF2503000F04CF9FFF7D2FF31
:101830004CF2503000F046F9FFF7CCFF4CF250303C
:1018400000F040F94FF00200FFF770FF4FF0030087
:10185000FFF796FF4FF00400FFF768FF4FF0050019
:10186000FFF764FFFFF7B6FF4CF2503000F02AF9A3
:1018700080BD00BF80B582B000AF0346FB714FF062
:101880000000FFF753FFFB795BB2002B04DA4FF047
:101890000500FFF775FF03E04FF00500FFF746FF77
:1018A000FB7903F04003002B04D04FF00400FFF756
:1018B00067FF03E04FF00400FFF738FFFB7903F008
:1018C0002003002B04D04FF00300FFF759FF03E083
:1018D0004FF00300FFF72AFFFB7903F01003002B02
:1018E00004D04FF00200FFF74BFF03E04FF002007F
:1018F000FFF71CFFFFF76EFFFB7903F00803002BD7
:1019000004D04FF00500FFF73BFF03E04FF0050068
:10191000FFF70CFFFB7903F00403002B04D04FF01A
:101920000400FFF72DFF03E04FF00400FFF7FEFE79
:10193000FB7903F00203002B04D04FF00300FFF704
:101940001FFF03E04FF00300FFF7F0FEFB7903F009
:101950000103002B04D04FF00200FFF711FF03E05A
:101960004FF00200FFF7E2FEFFF734FF07F1080730
:10197000BD4680BD80B582B000AF0346FB714FF01D
:101980000000FFF7FDFEFB795BB2002B04DA4FF09D
:101990000500FFF7F5FE03E04FF00500FFF7C6FE78
:1019A000FB7903F04003002B04D04FF00400FFF755
:1019B000E7FE03E04FF00400FFF7B8FEFB7903F009
:1019C0002003002B04D04FF00300FFF7D9FE03E003
:1019D0004FF00300FFF7AAFEFB7903F01003002B82
:1019E00004D04FF00200FFF7CBFE03E04FF00200FF
:1019F000FFF79CFEFFF7EEFEFB7903F00803002BD8
:101A000004D04FF00500FFF7BBFE03E04FF00500E8
:101A1000FFF78CFEFB7903F00403002B04D04FF09A
:101A20000400FFF7ADFE03E04FF00400FFF77EFE79
:101A3000FB7903F00203002B04D04FF00300FFF703
:101A40009FFE03E04FF00300FFF770FEFB7903F009
:101A50000103002B04D04FF00200FFF791FE03E0DA
:101A60004FF00200FFF762FEFFF7B4FE07F1080730
:101A7000BD4680BD80B584B000AF02460B46FA710A
:101A8000BB71FB790F2B02D94FF00003FB71BB79BF
:101A9000012B02D94FF00003BB71BB794FEA8313CE
:101AA000FB73FA7BFB791343FB73FB7B63F07F03D0
:101AB000FB73FB7B1846FFF7DDFE07F11007BD4601
:101AC00080BD00BF80B483B000AF786000BF7B688A
:101AD000002B0CBF00220122D2B203F1FF337B6046
:101AE000002AF4D107F10C07BD4680BC704700BF47
:041AF0002564000069
:101AF400007A030A00000000000000000102030451
:101B04000607080900000000001002402000000041
:101B1400100000000000000001000000001002405E
:101B2400400000001000000000000000020000005F
:101B340000100240800000001000000000000000BF
:101B4400030000000010024000010000100000002B
:101B54000000000004000000001002400002000029
:101B6400100000000000000005000000001002400A
:0C1B740000040000100000000000000051
:0400000508000000EF
:00000001FF
