:020000040800F2
:10000000C008002089010008610800086D08000888
:10001000750800087D080008850800080000000039
:100020000000000000000000000000008D08000833
:100030009908000800000000A5080008B1080008A1
:10004000F5010008F5010008F5010008F5010008B8
:10005000F5010008F5010008F5010008F5010008A8
:10006000F5010008F5010008F5010008F501000898
:10007000F5010008F5010008F5010008F501000888
:10008000F5010008F5010008F5010008F501000878
:10009000F5010008F5010008F5010008F501000868
:1000A000F5010008F5010008F5010008F501000858
:1000B000F5010008F5010008F5010008F501000848
:1000C000F5010008F5010008F5010008F501000838
:1000D000F5010008F5010008F5010008F501000828
:1000E000F5010008F5010008F5010008F501000818
:1000F000F5010008F5010008F5010008F501000808
:10010000F5010008F5010008F5010008F5010008F7
:10011000F5010008F5010008F5010008F5010008E7
:10012000F5010008F5010008F5010008F5010008D7
:10013000F5010008F5010008F5010008F5010008C7
:10014000F5010008F5010008F5010008F5010008B7
:10015000F5010008F5010008F5010008F5010008A7
:10016000F5010008F5010008F5010008F501000897
:10017000F5010008F5010008F5010008F501000887
:10018000F5010008F501000880B582B000AF41F626
:100190002863C0F600037B6040F20003C2F2000354
:1001A0003B600BE07B681A683B681A603B6803F1B0
:1001B00004033B607B6803F104037B603A6840F210
:1001C0008C03C2F200039A42ECD3084808494FF06E
:1001D00000028842B8BF40F8042BFFF6FAAF00F0E7
:1001E0003FF907F10807BD4680BD00008C000020E4
:1001F000BC00002080B400AFFEE700BF80B483B035
:1002000000AF03463960FB7197F90730002B10DA15
:100210004FF46D43CEF20003FA7902F00F02A2F11F
:1002200004013A68D2B24FEA0212D2B25B181A76CF
:100230000DE04FF46143CEF2000397F907103A68DE
:10024000D2B24FEA0212D2B25B1883F8002307F150
:100250000C07BD4680BC704780B582B000AF7860A7
:100260007A686FF07F439A4202D94FF001031FE092
:100270004EF21003CEF200037A6822F07F4202F1C0
:10028000FF325A604FF0FF304FF00F01FFF7B6FF1B
:100290004EF21003CEF200034FF000029A604EF2CD
:1002A0001003CEF200034FF007021A604FF0000374
:1002B000184607F10807BD4680BD00BF80B582B073
:1002C00000AF4FF008004FF0010100F04BFA4FF47F
:1002D00070433B604FF001033B714FF00003BB7173
:1002E0004FF003037B714FF00003FB713B464FF46B
:1002F0004060C4F20200194600F002FD07F1080751
:10030000BD4680BD80B582B000AF4FF002004FF017
:10031000010100F051FA4FF006004FF0010100F02A
:1003200021FA4FF0C0033B604FF002033B714FF0E6
:1003300003037B714FF00003BB714FF00103FB71AE
:100340003B464FF40060C4F20200194600F0D8FCAE
:100350004FF003033B604FF002033B714FF0030388
:100360007B714FF00003BB714FF00103FB713B4603
:100370004FF48060C4F20200194600F0C1FC4FF453
:100380000060C4F202004FF006014FF0020200F0DC
:1003900093FD4FF40060C4F202004FF007014FF0EC
:1003A000020200F089FD4FF48060C4F202004FF0B9
:1003B00000014FF0020200F07FFD4FF48060C4F2B4
:1003C00002004FF001014FF0020200F075FD07F14D
:1003D0000807BD4680BD00BF90B585B000AF78600E
:1003E00039607B681B681846396801F0ADFB03462D
:1003F0001C467B685A687B68DB681046194601F02A
:10040000A3FB03462046194601F096FA03461C4614
:100410007B689A687B681B691046194601F094FB5B
:1004200003462046194601F087FA03461A467B68C0
:100430005B691046194601F07FFA0346FB607B6852
:10044000DA687B681A617B683A68DA607B68FA6808
:100450005A61FB68184607F11407BD4690BD00BFFE
:1004600080B58EB000AF4FF000033B634FF0000348
:10047000FB624FF4FA73BB624FF00003C4F2C8236F
:10048000FB614CF6CD43C3F6CC433B624FF0000317
:10049000C4F2A0137B6240F6CD43C4F2F0237B602C
:1004A0004FF00003CCF20C33BB604FF00003C4F2FA
:1004B000A013FB604FF000033B614FF000037B6132
:1004C0004FF00003BB6100F04BFDFFF71BFF00F096
:1004D0000BFFFFF7F3FE00F051FE40F20003C2F203
:1004E00000031A6844F6D353C1F26203A3FB02135C
:1004F0004FEA93131846FFF7AFFE00F059F8F86281
:100500004FF0050000F024F8BA6AFB6AD31A1846C7
:1005100001F0C6FA03463B6307F104031846396B42
:10052000FFF75AFF0346184601F05EFC0346FB86C0
:10053000FB8E642B02D94FF06403FB86FB8E4FEADF
:100540008303FB86FB8E184600F088F8D5E700BFD2
:1005500080B483B000AF78607A6840F29403C2F24E
:1005600000031A6000BF40F29403C2F200031B684C
:10057000002BF8D107F10C07BD4680BC704700BFC7
:1005800080B400AF40F29403C2F200031B68002B5A
:100590000BD040F29403C2F200031B6803F1FF3258
:1005A00040F29403C2F200031A60BD4680BC70475B
:1005B00080B582B000AF4FF000037B6000F066FEB4
:1005C00078607B6840F6B83202FB03F34FF081029B
:1005D000C8F2080282FB0312D2184FEAE2224FEA65
:1005E000E373D31A7B607B68184607F10807BD46A2
:1005F00080BD00BF80B582B000AFFFF7D9FF786043
:100600007A6840F20D139A420FDC4FF44060C4F256
:1006100002004FF4805100F033FC4FF44060C4F20C
:1006200002004FF4604100F039FC7A6840F20D138B
:100630009A420FDD4FF44060C4F202004FF40051C3
:1006400000F01EFC4FF44060C4F202004FF4504131
:1006500000F024FC07F10807BD4680BD80B582B0DC
:1006600000AF786040F20003C2F200031A684DF652
:100670008363C4F21B33A3FB02134FEA93439BB281
:1006800003F1FF339AB240F28C03C2F200031A80E6
:1006900040F29803C2F2000340F2F3125A6040F2B3
:1006A0008C03C2F200031A8840F29803C2F20003DE
:1006B0001A8040F29803C2F200034FF000021A8140
:1006C00040F29803C2F200034FF000025A804FF448
:1006D0008060C4F2000040F29801C2F2000100F014
:1006E000D1FF40F2A803C2F200034FF060021A806B
:1006F00040F2A803C2F200034FF001025A807A6868
:1007000040F2A803C2F200039A6040F2A803C2F2CA
:1007100000034FF000029A814FF48060C4F20000A1
:1007200040F2A801C2F2000101F066F84FF48060C7
:10073000C4F200004FF0080101F0DCF84FF48060D3
:10074000C4F200004FF0010101F016F84FF4806090
:10075000C4F200004FF0010101F02EF807F1080784
:10076000BD4680BD80B483B000AF78600B46FB709F
:10077000FB78002B0CD04FF46053C4F202034FF40B
:100780006052C4F20202116B7A680A431A630DE0E8
:100790004FF46053C4F202034FF46052C4F20202F9
:1007A000116B7A686FEA02020A401A6307F10C07BC
:1007B000BD4680BC704700BF80B483B000AF786096
:1007C0000B46FB70FB78002B0CD04FF46053C4F247
:1007D00002034FF46052C4F20202116C7A680A43B9
:1007E0001A640DE04FF46053C4F202034FF46052F8
:1007F000C4F20202116C7A686FEA02020A401A64BB
:1008000007F10C07BD4680BC704700BF80B483B0C1
:1008100000AF78600B46FB70FB78002B0CD04FF4D8
:100820006053C4F202034FF46052C4F20202516CEE
:100830007A680A435A640DE04FF46053C4F202032D
:100840004FF46052C4F20202516C7A686FEA0202FD
:100850000A405A6407F10C07BD4680BC704700BFD0
:1008600080B400AFBD4680BC704700BF80B400AF0D
:10087000FEE700BF80B400AFFEE700BF80B400AF6A
:10088000FEE700BF80B400AFFEE700BF80B400AF5A
:10089000BD4680BC704700BF80B400AFBD4680BC81
:1008A000704700BF80B400AFBD4680BC704700BF3A
:1008B00080B500AFFFF764FEFFF79CFE80BD00BF70
:1008C00080B485B000AF786039604FF00003FB6002
:1008D0004FF00003FB727B685B68FB60FB6823F0F2
:1008E000407323F48073FB603B681B794FEA03225B
:1008F0003B681B681343FA681343FB607B68FA6824
:100900005A607B689B68FB60FA684FF2FD73CCF21B
:10091000FF031340FB603B681A693B68DB681A43BE
:100920003B689B681A433B685B794FEA4303134378
:10093000FA681343FB607B68FA689A607B68DB6A3D
:10094000FB60FB6823F47003FB603B681B7D03F1D5
:10095000FF33DAB2FB7A1343FB72FB7A4FEA03539D
:10096000FA681343FB607B68FA68DA6207F11407E0
:10097000BD4680BC704700BF80B483B000AF7860D4
:100980007B684FF000021A607B684FF000021A711A
:100990007B684FF000025A717B684FF000029A604A
:1009A0007B684FF00002DA607B684FF000021A614A
:1009B0007B684FF001021A7507F10C07BD4680BC39
:1009C000704700BF80B485B000AF78604FF000037F
:1009D000FB604FF40C53C4F201035B68FB60FA68E0
:1009E00043F2E003CFF6FC731340FB607B681A68A8
:1009F0007B685B681A437B689B681A437B68DB688B
:100A00001343FA681343FB604FF40C53C4F2010321
:100A1000FA685A6007F11407BD4680BC704700BFF2
:100A200080B483B000AF78607B684FF000021A603A
:100A30007B684FF000025A607B684FF000029A60BA
:100A40007B684FF00002DA6007F10C07BD4680BCFE
:100A5000704700BF80B483B000AF78600B46FB7076
:100A6000FB78002B06D07B689B6843F001027B6813
:100A70009A6005E07B689B6823F001027B689A60BE
:100A800007F10C07BD4680BC704700BF80B487B03B
:100A900000AF7860F970BA707B704FF000037B6133
:100AA0004FF000033B614FF00003FB60FB78092B24
:100AB00027D97B68DB687B61FA7813464FEA4303EA
:100AC0009B18A3F11E034FF0070202FA03F33B61E8
:100AD0003B696FEA03037A6913407B617978FA789E
:100AE00013464FEA43039B18A3F11E0301FA03F3D5
:100AF0003B617A693B6913437B617B687A69DA60A1
:100B000022E07B681B697B61FA7813464FEA430356
:100B10009B184FF0070202FA03F33B613B696FEA4F
:100B200003037A6913407B617978FA7813464FEAB8
:100B300043039B1801FA03F33B617A693B69134352
:100B40007B617B687A691A617B689B6B7B617B69DF
:100B500003F440134FEA1353FB60FB68DBB26FEA08
:100B60000303DAB2BB78D318DBB203F10303DBB2C1
:100B70001A4613464FEA83039B184FF01F0202FAEE
:100B800003F33B613B696FEA03037A6913407B61BE
:100B9000F978FB68DBB26FEA0303DAB2BB78D318EB
:100BA000DBB203F10303DBB21A4613464FEA8303B9
:100BB0009B1801FA03F33B617A693B6913437B613C
:100BC0007B687A699A6307F11C07BD4680BC704751
:100BD00080B485B000AF78600B46FB704FF0000327
:100BE000FB604FF00003BB607B689B6BFB60FB68A6
:100BF00023F44013FB60FB7803F1FF33BB60BB6859
:100C00004FEA0353FA681343FB607B68FA689A6300
:100C100007F11407BD4680BC704700BF80B485B0A3
:100C200000AF786013460A46FA703B804FF000032D
:100C3000FB607B68FB60FA78FB68D318FB60FB689D
:100C40003A881A6007F11407BD4680BC704700BFA0
:100C500080B483B000AF78607B689B6843F4800207
:100C60007B689A6007F10C07BD4680BC704700BFE7
:100C700080B485B000AF78600B46FB704FF0000386
:100C8000FB607B68FB60FA78FB68D31803F12803EC
:100C9000FB60FB681B689BB2184607F11407BD4652
:100CA00080BC704780B485B000AF78600B46FB70A5
:100CB0004FF00003FB737B681A68FB781340002B2E
:100CC00003D04FF00103FB7302E04FF00003FB730E
:100CD000FB7B184607F11407BD4680BC704700BF78
:100CE00080B483B000AF78600B46FB70FB786FEA8E
:100CF00003027B681A6007F10C07BD4680BC704791
:100D000080B487B000AF786039604FF000037B613A
:100D10004FF000033B614FF00003FB604FF0000316
:100D20007B6186E07B694FF0010202FA03F33B61CD
:100D30003B681A683B691340FB60FA683B699A425A
:100D400073D17B681A687B694FEA43034FF0030154
:100D500001FA03F36FEA03031A407B681A607B68A9
:100D60001A683B681B7919467B694FEA430301FA0D
:100D700003F31A437B681A603B681B79012B03D08D
:100D80003B681B79022B34D17B689A687B694FEAF8
:100D900043034FF0030101FA03F36FEA03031A4020
:100DA0007B689A607B689A683B685B7919467B69C7
:100DB0004FEA430301FA03F31A437B689A607B68A6
:100DC0005A687B699BB24FF0010101FA03F36FEAA5
:100DD00003031A407B685A607B685A683B689B79BA
:100DE00019467B699BB201FA03F39BB21A437B68F5
:100DF0005A607B68DA687B699BB24FEA43034FF025
:100E0000030101FA03F36FEA03031A407B68DA6017
:100E10007B68DA683B68DB7919467B694FEA4303F4
:100E200001FA03F31A437B68DA607B6903F101037B
:100E30007B617B690F2B7FF675AF07F11C07BD4601
:100E400080BC704780B483B000AF78607B684FF699
:100E5000FF721A607B684FF000021A717B684FF0D6
:100E600000025A717B684FF000029A717B684FF064
:100E70000002DA7107F10C07BD4680BC704700BF65
:100E800080B483B000AF78600B467B807B687A8843
:100E90001A8307F10C07BD4680BC704780B483B04D
:100EA00000AF78600B467B807B687A885A8307F1B5
:100EB0000C07BD4680BC704780B485B000AF786039
:100EC00013460A467A807B704FF00003FB604FF0B8
:100ED0000003BB607A787B8803F007034FEA830343
:100EE00002FA03F3FB607B884FEAD3039BB21A46F6
:100EF0007B884FEAD3039BB219467B6801F1080156
:100F000053F821107B8803F007034FEA83034FF067
:100F10000F0000FA03F36FEA030319407B6802F144
:100F2000080243F822107B884FEAD3039BB21A468B
:100F30007B6802F1080253F82220FB681343BB6070
:100F40007B884FEAD3039BB21A467B6802F1080202
:100F5000B96843F8221007F11407BD4680BC7047FA
:100F600080B500AF4FF46053C4F202034FF46052F7
:100F7000C4F20202126842F001021A604FF4605398
:100F8000C4F202034FF000029A604FF46053C4F2BF
:100F900002034FF46052C4F20202126822F084721B
:100FA00022F480321A604FF46053C4F2020343F219
:100FB0001002C2F200425A604FF46053C4F20203BE
:100FC0004FF46052C4F20202126822F480221A60C6
:100FD0004FF46053C4F202034FF00002DA6000F0F5
:100FE00009F84FF46D43CEF200034FF000629A60AF
:100FF00080BD00BF80B483B000AF4FF000037B60C2
:101000004FF000033B604FF46053C4F202034FF40F
:101010006052C4F20202126842F480321A604FF445
:101020006053C4F202031B6803F400333B607B6827
:1010300003F101037B603B68002B03D17B68B3F5B0
:10104000A06FECD14FF46053C4F202031B6803F4A9
:101050000033002B03D04FF001033B6002E04FF060
:1010600000033B603B68012B40F082804FF46053EB
:10107000C4F202034FF46052C4F20202126C42F056
:1010800080521A644FF4E043C4F200034FF4E0428C
:10109000C4F20002126842F480421A604FF46053B6
:1010A000C4F202034FF46052C4F2020292689A60E2
:1010B0004FF46053C4F202034FF46052C4F20202D0
:1010C000926842F400429A604FF46053C4F2020303
:1010D0004FF46052C4F20202926842F4A0529A6045
:1010E0004FF46053C4F2020345F20842C0F240726A
:1010F0005A604FF46053C4F202034FF46052C4F2DA
:101100000202126842F080721A6000BF4FF460530E
:10111000C4F202031B6803F00073002BF6D04FF4F7
:101120007053C4F2020340F205621A604FF4605338
:10113000C4F202034FF46052C4F20202926822F039
:1011400003029A604FF46053C4F202034FF46052FA
:10115000C4F20202926842F002029A6000BF4FF4A9
:101160006053C4F202039B6803F00C03082BF6D112
:1011700007F10C07BD4680BC704700BF80B58CB03E
:1011800000AF4FF004004FF00101FFF7EBFA07F159
:1011900028031846FFF756FE4FF00203BB624FF0DC
:1011A000030387F82C304FF0000387F82F3007F146
:1011B00028034FF40060C4F202001946FFF7A0FDB7
:1011C0004FF480704FF00101FFF720FB3B461846BB
:1011D000FFF726FC4FF000033B604FF480337B6049
:1011E0004FF00003BB604FF00003FB603B46184626
:1011F000FFF7E8FB07F110031846FFF7BDFB4FF0C0
:1012000000033B614FF000033B754FF000037B751B
:101210004FF00003BB614FF000033B624FF001034E
:1012200087F8243007F110034FF40050C4F2010096
:101230001946FFF745FB4FF40050C4F201004FF090
:101240000101FFF7C5FC4FF40050C4F201004FF05C
:1012500014014FF00002FFF7E1FC4FF40050C4F21C
:1012600001004FF00B014FF001024FF00703FFF7B1
:101270000DFC4FF40050C4F201004FF00101FFF7E4
:10128000E9FB07F13007BD4680BD00BF80B582B0E5
:1012900000AF4FF40050C4F201004FF00401FFF71B
:1012A0001FFD4FF40050C4F20100FFF7D1FC00BF56
:1012B0004FF40050C4F201004FF00401FFF7F2FCBC
:1012C0000346002BF4D04FF40050C4F201004FF05D
:1012D0001401FFF7CDFC03467B607B68184607F1DD
:1012E0000807BD4680BD00BF80B500AF00F01EF806
:1012F00048F2A060C0F2010000F0AEF900F0F0F892
:101300004FF0280000F028F94FF0060000F024F913
:101310004FF00C0000F020F94FF0010000F01CF934
:101320004CF2503000F098F980BD00BF80B584B019
:1013300000AF4FF00003FB7362E0F97B40F2140250
:10134000C2F200020B464FEA83035B184FEA8303A5
:10135000D31803F10C031B6818464FF00101FFF787
:1013600001FAF97B40F21402C2F200020B464FEA86
:1013700083035B184FEA8303D31803F108031B8828
:101380007B604FF001033B724FF00003BB724FF0E4
:101390000103FB724FF002037B72F97B40F21402EF
:1013A000C2F200020B464FEA83035B184FEA830345
:1013B000D31803F104031A6807F104031046194611
:1013C000FFF79EFCF97B40F21402C2F200020B46CA
:1013D0004FEA83035B184FEA8303D31803F110032A
:1013E0001B78002B04D1FB7B184600F011F803E0BA
:1013F000FB7B184600F036F8FB7B03F10103FB731F
:10140000FB7B052B99D907F11007BD4680BD00BFB6
:1014100080B483B000AF0346FB71F97940F2140247
:10142000C2F200020B464FEA83035B184FEA8303C4
:10143000D31803F104031868F97940F21402C2F2D8
:1014400000020B464FEA83035B184FEA8303D3186D
:1014500003F108031B88438307F10C07BD4680BCDA
:10146000704700BF80B483B000AF0346FB71F979C9
:1014700040F21402C2F200020B464FEA83035B18EB
:101480004FEA8303D31803F104031868F97940F293
:101490001402C2F200020B464FEA83035B184FEAC4
:1014A0008303D31803F108031B88038307F10C0798
:1014B000BD4680BC704700BF80B500AF4FF0010053
:1014C000FFF7D0FF4FF47A7000F0C6F84FF001003C
:1014D000FFF79EFF4FF47A7000F0BEF880BD00BFAA
:1014E00080B500AF4FF00200FFF7BCFF4FF00300E4
:1014F000FFF7B8FF4FF00400FFF78AFF4FF0050039
:10150000FFF786FFFFF7D8FF4CF2503000F0A4F849
:10151000FFF7D2FF4CF2503000F09EF8FFF7CCFFFF
:101520004CF2503000F098F84FF00200FFF770FFD7
:101530004FF00300FFF796FF4FF00400FFF768FF3E
:101540004FF00500FFF764FFFFF7B6FF4CF2503095
:1015500000F082F880BD00BF80B582B000AF0346C6
:10156000FB714FF00000FFF753FFFB795BB2002BDC
:1015700004DA4FF00500FFF775FF03E04FF00500B8
:10158000FFF746FFFB7903F04003002B04D04FF038
:101590000400FFF767FF03E04FF00400FFF738FF98
:1015A000FB7903F02003002B04D04FF00300FFF77A
:1015B00059FF03E04FF00300FFF72AFFFB7903F028
:1015C0001003002B04D04FF00200FFF74BFF03E0A5
:1015D0004FF00200FFF71CFFFFF76EFFFB7903F0EF
:1015E0000803002B04D04FF00500FFF73BFF03E09A
:1015F0004FF00500FFF70CFFFB7903F00403002B0D
:1016000004D04FF00400FFF72DFF03E04FF004007B
:10161000FFF7FEFEFB7903F00203002B04D04FF02E
:101620000300FFF71FFF03E04FF00300FFF7F0FE9A
:10163000FB7903F00103002B04D04FF00200FFF709
:1016400011FF03E04FF00200FFF7E2FEFFF734FF67
:1016500007F10807BD4680BD80B483B000AF786055
:1016600000BF7B68002B0CBF00220122D2B203F125
:10167000FF337B60002AF4D107F10C07BD4680BC24
:10168000704700BF80B485B000AF786039604FF01C
:101690000003FB817B681B88FB817A684FF00003A5
:1016A000C4F201039A421FD07A684FF48063C4F2F7
:1016B00001039A4218D07B68B3F1804F14D07A6846
:1016C0004FF48063C4F200039A420DD07A684FF45D
:1016D0000063C4F200039A4206D07A684FF4406374
:1016E000C4F200039A4208D1FB8923F07003FB8106
:1016F0003B685A88FB891343FB817A684FF4805317
:10170000C4F200039A420FD07A684FF4A053C4F297
:1017100000039A4208D0FB8923F44073FB813B68A5
:101720001A89FB891343FB817B68FA891A803B681D
:101730005A687B68DA623B681A887B681A857A681F
:101740004FF00003C4F201039A4206D07A684FF4C6
:101750008063C4F201039A4204D13B689B7A1A4623
:101760007B681A867B684FF001029A8207F11407A2
:10177000BD4680BC704700BF80B483B000AF7860C6
:101780000B46FB70FB78002B08D07B681B889BB254
:1017900043F080039AB27B681A8007E07B681B885D
:1017A0009BB223F080039AB27B681A8007F10C0782
:1017B000BD4680BC704700BF80B483B000AF786086
:1017C0000B46FB70FB78002B08D07B681B889BB214
:1017D00043F001039AB27B681A8007E07B681B889C
:1017E0009BB223F001039AB27B681A8007F10C07C1
:1017F000BD4680BC704700BF80B485B000AF786044
:1018000039604FF000037B814FF00003FB814FF004
:101810000003BB817B681B8C9BB223F001039AB24F
:101820007B681A847B681B8CFB817B689B88BB81EF
:101830007B681B8B7B817B8923F070037B817B8999
:1018400023F003037B813B681A887B8913437B81E8
:10185000FB8923F00203FB813B689A89FB891343D0
:10186000FB813B685A88FB891343FB817A684FF000
:101870000003C4F201039A4206D07A684FF48063F1
:10188000C4F201039A4223D1FB8923F00803FB81B0
:101890003B68DA89FB891343FB81FB8923F004034E
:1018A000FB813B689A88FB891343FB81BB8923F446
:1018B0008073BB81BB8923F40073BB813B681A8AA8
:1018C000BB891343BB813B685A8ABB891343BB81E5
:1018D0007B68BA899A807B687A891A833B689A68A0
:1018E0007B685A637B68FA891A8407F11407BD463E
:1018F00080BC704780B485B000AF78600B467B80B9
:101900004FF00003FB817B681B8BFB81FB8923F07D
:101910000803FB81FA897B881343FB817B68FA8982
:101920001A8307F11407BD4680BC704780F0004061
:1019300002E000BF81F0004142001FBF5FEA4103A7
:1019400092EA030F7FEA226C7FEA236C6AD04FEAA7
:101950001262D2EB1363C1BFD218414048404140EC
:10196000B8BF5B42192B88BF704710F0004F40F49E
:10197000000020F07F4018BF404211F0004F41F4BA
:10198000000121F07F4118BF494292EA030F3FD086
:10199000A2F1010241FA03FC10EB0C00C3F1200399
:1019A00001FA03F100F0004302D5494260EB400028
:1019B000B0F5000F13D3B0F1807F06D340084FEA93
:1019C000310102F10102FE2A51D2B1F1004F40EB88
:1019D000C25008BF20F0010040EA030070474900F0
:1019E00040EB000010F4000FA2F10102EDD1B0FABB
:1019F00080FCACF1080CB2EB0C0200FA0CF0AABFB0
:101A000000EBC25052421843BCBFD040184370474D
:101A100092F0000F81F4000106BF80F40000013253
:101A2000013BB5E74FEA41037FEA226C18BF7FEA2A
:101A3000236C21D092EA030F04D092F0000F08BF6C
:101A40000846704790EA010F1CBF0020704712F053
:101A50007F4F04D1400028BF40F00040704712F192
:101A600000723CBF00F50000704700F0004343F0F7
:101A7000FE4040F4000070477FEA226216BF08462D
:101A80007FEA23630146420206BF5FEA412390EAF0
:101A9000010F40F4800070474FF0000304E000BFE6
:101AA00010F0004348BF40425FEA000C08BF704797
:101AB00043F0964301464FF000001CE050EA01025B
:101AC00008BF70474FF000030AE000BF50EA010270
:101AD00008BF704711F0004302D5404261EB41015D
:101AE0005FEA010C02BF84460146002043F0B64382
:101AF00008BFA3F18053A3F50003BCFA8CF2083AA7
:101B0000A3EBC25310DB01FA02FC634400FA02FCAF
:101B1000C2F12002BCF1004F20FA02F243EB0200B6
:101B200008BF20F00100704702F1200201FA02FC18
:101B3000C2F1200250EA4C0021FA02F243EB02000B
:101B400008BF20EADC7070474FF0FF0C1CEAD0524F
:101B50001EBF1CEAD15392EA0C0F93EA0C0F6FD010
:101B60001A4480EA010C400218BF5FEA41211ED0EE
:101B70004FF0006343EA501043EA5111A0FB0131DA
:101B80000CF00040B1F5000F3EBF490041EAD371AF
:101B90005B0040EA010062F17F02FD2A1DD8B3F12B
:101BA000004F40EBC25008BF20F00100704790F09A
:101BB000000F0CF0004C08BF49024CEA502040EAEC
:101BC00051207F3AC2BFD2F1FF0340EAC2507047B2
:101BD00040F400004FF00003013A5DDC12F1190FF0
:101BE000DCBF00F000407047C2F10002410021FA62
:101BF00002F1C2F1200200FA02FC5FEA310040F17A
:101C0000000053EA4C0308BF20EADC70704792F0F2
:101C1000000F00F0004C02BF400010F4000F013A2A
:101C2000F9D040EA0C0093F0000F01F0004C02BF25
:101C3000490011F4000F013BF9D041EA0C018FE794
:101C40000CEAD15392EA0C0F18BF93EA0C0F0AD09A
:101C500030F0004C18BF31F0004CD8D180EA0100C0
:101C600000F00040704790F0000F17BF90F0004F59
:101C7000084691F0000F91F0004F14D092EA0C0F3B
:101C800001D142020FD193EA0C0F03D14B0218BFCE
:101C9000084608D180EA010000F0004040F0FE4014
:101CA00040F40000704740F0FE4040F440007047B0
:101CB0004FF0FF0C1CEAD0521EBF1CEAD15392EA2F
:101CC0000C0F93EA0C0F69D0A2EB030280EA010C1F
:101CD00049024FEA402037D04FF0805343EA1111B8
:101CE00043EA10130CF000408B4238BF5B0042F116
:101CF0007D024FF4000C8B4224BF5B1A40EA0C00BB
:101D0000B3EB510F24BFA3EB510340EA5C00B3EBEC
:101D1000910F24BFA3EB910340EA9C00B3EBD10FDA
:101D200024BFA3EBD10340EADC001B0118BF5FEA2C
:101D30001C1CE0D1FD2A3FF650AF8B4240EBC25055
:101D400008BF20F0010070470CF0004C4CEA502016
:101D50007F32C2BFD2F1FF0340EAC250704740F465
:101D600000004FF00003013A37E792F0000F00F057
:101D7000004C02BF400010F4000F013AF9D040EAD5
:101D80000C0093F0000F01F0004C02BF490011F469
:101D9000000F013BF9D041EA0C0195E70CEAD15361
:101DA00092EA0C0F08D142027FF47DAF93EA0C0F48
:101DB0007FF470AF084676E793EA0C0F04D14B022C
:101DC0003FF44CAF08466EE730F0004C18BF31F0DE
:101DD000004CCAD130F000427FF45CAF31F00043D8
:101DE0007FF43CAF5FE700BF42000ED2B2F1FE4F7E
:101DF0000BD34FF09E03B3EB126209D44FEA0023DA
:101E000043F0004323FA02F070474FF000007047A0
:101E100012F1610F01D1420202D14FF0FF30704741
:081E20004FF00000704700BF05
:101E2800007A030A00000000000000000102030419
:101E3800060708090000000000100240200000000A
:101E48001000000000000000010000000010024027
:101E58004000000010000000000000000200000028
:101E68000010024080000000100000000000000088
:101E780003000000001002400001000010000000F4
:101E880000000000040000000010024000020000F2
:101E980010000000000000000500000000100240D3
:0C1EA8000004000010000000000000001A
:0400000508000000EF
:00000001FF
