:020000040800F2
:100000002C08002089010008110400081D040008C4
:10001000250400082D040008350400080000000035
:100020000000000000000000000000003D04000887
:10003000490400080000000055040008610400089D
:10004000F1010008F1010008F1010008F1010008C8
:10005000F1010008F1010008F1010008F1010008B8
:10006000F1010008F1010008F1010008F1010008A8
:10007000F1010008F1010008F1010008F101000898
:10008000F1010008F1010008F1010008F101000888
:10009000F1010008F1010008F1010008F101000878
:1000A000F1010008F1010008F1010008F101000868
:1000B000F1010008F1010008F1010008F101000858
:1000C000F1010008F1010008F1010008F101000848
:1000D000F1010008F1010008F1010008F101000838
:1000E000F1010008F1010008F1010008F101000828
:1000F000F1010008F1010008F1010008F101000818
:10010000F1010008F1010008F1010008F101000807
:10011000F1010008F1010008F1010008F1010008F7
:10012000F1010008F1010008F1010008F1010008E7
:10013000F1010008F1010008F1010008F1010008D7
:10014000F1010008F1010008F1010008F1010008C7
:10015000F1010008F1010008F1010008F1010008B7
:10016000F1010008F1010008F1010008F1010008A7
:10017000F1010008F1010008F1010008F101000897
:10018000F1010008F101000880B582B000AF40F62F
:100190000403C0F600037B6040F20003C2F20003D8
:1001A0003B600BE07B681A683B681A603B6803F1B0
:1001B00004033B607B6803F104037B603A6840F210
:1001C0002403C2F200039A42ECD3DFF83006DFF8D2
:1001D00030164FF000028842B8BF40F8042BFFF6FB
:1001E000FAAF00F069F807F10807BD4680BD00BF0F
:1001F00080B400AFFEE700BF80B483B000AF034619
:100200003960FB7197F90730002B10DA4FF46D431A
:10021000CEF20003FA7902F00F02A2F104013A686B
:10022000D2B24FEA0212D2B25B181A760DE04FF446
:100230006143CEF2000397F907103A68D2B24FEA51
:100240000212D2B25B1883F8002307F10C07BD46F7
:1002500080BC704780B582B000AF78607A686FF07C
:100260007F439A4202D94FF001031FE04EF2100380
:10027000CEF200037A6822F07F4202F1FF325A6028
:100280004FF0FF304FF00F01FFF7B6FF4EF21003B3
:10029000CEF200034FF000029A604EF21003CEF24D
:1002A00000034FF007021A604FF00003184607F1F1
:1002B0000807BD4680BD00BF80B500AF00F094F9CF
:1002C00000F02AF840F21003C2F200031A6844F664
:1002D000D353C1F26203A3FB02134FEA93131846F0
:1002E000FFF7B8FF4FF44060C4F202004FF48051B2
:1002F00000F05EF94FF4FA7000F032F84FF440600D
:10030000C4F202004FF4805100F060F94FF4FA702B
:1003100000F026F8E6E700BF80B582B000AF4FF0EE
:1003200008004FF0010100F049F84FF470433B60C2
:100330004FF001033B714FF00003BB714FF003031B
:100340007B714FF00003FB713B464FF44060C4F2F9
:100350000200194600F08AF807F10807BD4680BD83
:1003600080B483B000AF78607A6840F22803C2F2AC
:1003700000031A6040F22803C2F200031B68002B3E
:10038000F8D107F10C07BD4680BC704780B400AFC0
:1003900040F22803C2F200031B68002B0BD040F28E
:1003A0002803C2F200031B6803F1FF3240F2280366
:1003B000C2F200031A60BD4680BC704780B483B0AF
:1003C00000AF78600B46FB70FB78002B0CD04FF42D
:1003D0006053C4F202034FF46052C4F20202116B84
:1003E0007A680A431A630DE04FF46053C4F20203C3
:1003F0004FF46052C4F20202116B7A686FEA020293
:100400000A401A6307F10C07BD4680BC704700BF65
:1004100080B400AFBD4680BC704700BF80B400AF61
:10042000FEE700BF80B400AFFEE700BF80B400AFBE
:10043000FEE700BF80B400AFFEE700BF80B400AFAE
:10044000BD4680BC704700BF80B400AFBD4680BCD5
:10045000704700BF80B400AFBD4680BC704700BF8E
:1004600080B500AFFFF792FF80BD00BF80B487B0BA
:1004700000AF786039604FF000037B614FF00003FC
:100480003B614FF00003FB604FF000037B6186E0AF
:100490007B694FF0010202FA03F33B613B681A6883
:1004A0003B691340FB60FA683B699A4273D17B68F1
:1004B0001A687B694FEA43034FF0030101FA03F323
:1004C0006FEA03031A407B681A607B681A683B680E
:1004D0001B7919467B694FEA430301FA03F31A4378
:1004E0007B681A603B681B79012B03D03B681B7942
:1004F000022B34D17B689A687B694FEA43034FF043
:10050000030101FA03F36FEA03031A407B689A6060
:100510007B689A683B685B7919467B694FEA4303BD
:1005200001FA03F31A437B689A607B685A687B6917
:100530009BB24FF0010101FA03F36FEA03031A4083
:100540007B685A607B685A683B689B7919467B696F
:100550009BB201FA03F39BB21A437B685A607B6833
:10056000DA687B699BB24FEA43034FF0030101FA5B
:1005700003F36FEA03031A407B68DA607B68DA688A
:100580003B68DB7919467B694FEA430301FA03F3C1
:100590001A437B68DA607B6903F101037B617B6945
:1005A0000F2B7FF675AF07F11C07BD4680BC704767
:1005B00080B483B000AF78600B467B807B687A881C
:1005C0001A8307F10C07BD4680BC704780B483B026
:1005D00000AF78600B467B807B687A885A8307F18E
:1005E0000C07BD4680BC704780B500AF4FF4605328
:1005F000C4F202034FF46052C4F20202126842F0E5
:1006000001021A604FF46053C4F202034FF000027B
:100610009A604FF46053C4F202034FF46052C4F284
:100620000202126822F0847222F480321A604FF4BF
:100630006053C4F2020343F21002C2F200425A6055
:100640004FF46053C4F202034FF46052C4F202024A
:10065000126822F480221A604FF46053C4F202033D
:100660004FF00002DA6000F009F84FF46D43CEF26B
:1006700000034FF000629A6080BD00BF80B483B079
:1006800000AF4FF000037B604FF000033B604FF47E
:100690006053C4F202034FF46052C4F202021268C3
:1006A00042F480321A604FF46053C4F202031B68B4
:1006B00003F400333B607B6803F101037B603B681C
:1006C000002B03D17B68B3F5A06FECD14FF46053DE
:1006D000C4F202031B6803F40033002B03D04FF075
:1006E00001033B6002E04FF000033B603B68012BDD
:1006F0007FD14FF46053C4F202034FF46052C4F24E
:100700000202126C42F080521A644FF4E043C4F2C9
:1007100000034FF4E042C4F20002126842F4804247
:100720001A604FF46053C4F202034FF46052C4F2F3
:10073000020292689A604FF46053C4F202034FF4CD
:100740006052C4F20202926842F400429A604FF48E
:100750006053C4F202034FF46052C4F20202926882
:1007600042F4A0529A604FF46053C4F2020345F27F
:100770000842C0F240725A604FF46053C4F2020360
:100780004FF46052C4F20202126842F080721A60A2
:100790004FF46053C4F202031B6803F00073002B94
:1007A000F6D04FF47053C4F2020340F205621A60AF
:1007B0004FF46053C4F202034FF46052C4F20202D9
:1007C000926822F003029A604FF46053C4F202036D
:1007D0004FF46052C4F20202926842F002029A6040
:1007E0004FF46053C4F202039B6803F00C03082B20
:1007F000F6D107F10C07BD4680BC704724000020ED
:040800002C000020A8
:1008040000000000010203040102030406070809B2
:10081400007A030A00000000000000000102030443
:0408240006070809B2
:04000005080002B934
:00000001FF
